:020000040800F2
:100000000000082091310008710C0008730C0008F2
:10001000750C0008770C0008790C0008000000003F
:100020000000000000000000000000007B0C000841
:100030007D0C0008000000007F0C0008810C000807
:10004000E1310008E1310008E1310008E131000848
:10005000E1310008E1310008E1310008E131000838
:10006000E1310008E1310008E1310008E131000828
:10007000E1310008E1310008E1310008E131000818
:10008000E1310008E1310008E1310008E131000808
:10009000890C0008E1310008E1310008E131000875
:1000A000E1310008E1310008E1310008E1310008E8
:1000B000E1310008E1310008E1310008E1310008D8
:1000C000E1310008E1310008E1310008E1310008C8
:1000D000E1310008E1310008E1310008E1310008B8
:1000E000E1310008E1310008E1310008E1310008A8
:1000F000E1310008E1310008E1310008E131000898
:10010000E1310008E1310008E1310008E131000887
:10011000E1310008E1310008E1310008E131000877
:10012000E1310008E1310008E1310008E131000867
:10013000E1310008E1310008E1310008E131000857
:10014000E1310008E1310008E1310008E131000847
:10015000E1310008E1310008E1310008E131000837
:10016000E1310008E1310008E1310008E131000827
:10017000E1310008E1310008E13100080000000031
:10018000E1310008E1310008E1310008E131000807
:10019000E1310008E1310008E1310008E1310008F7
:1001A000E1310008E1310008E1310008E1310008E7
:1001B000E1310008E1310008E1310008E1310008D7
:1001C000E1310008E131000800000000E1310008E1
:1001D000E1310008E1310008E1310008E1310008B7
:1001E000E1310008E1310008E1310008E1310008A7
:0801F000E1310008E1310008D3
:1001F8000348044B834202D0034B03B118477047AE
:100208000C0000200C000020000000000548064BF0
:100218001B1AD90F01EBA301491002D0034B03B1FC
:10022800184770470C0000200C0000200000000058
:1002380010B5064C237843B9FFF7DAFF044B13B126
:100248000448AFF300800123237010BD4C01002047
:1002580000000000E431000808B5044B1BB1044954
:100268000448AFF30080BDE80840CFE70000000075
:1002780050010020E431000870B50F4B0F4DAB4220
:10028800A3EB050607D0B610002455F8043B01344B
:100298009847A642F9D802F0A1FF094D094B5E1B09
:1002A800AB424FEAA60606D0002455F8043B0134B9
:1002B8009847A642F9D870BD1C3200081C320008C5
:1002C8001C32000820320008830730B547D0541E7E
:1002D800002A3ED0CAB2034601E0013C39D303F8F4
:1002E800012B9D07F9D1032C2CD9CDB205EB05259F
:1002F8000F2C05EB054535D9A4F1100222F00F0C9F
:1003080003F1100EE6444FEA121C1A46C2E90055E2
:10031800C2E9025510327245F8D10CF1010214F00D
:100328000C0F03EB021204F00F0C13D0ACF1040312
:1003380023F003030433134442F8045B9342FBD1D4
:100348000CF003042CB1C9B21C4403F8011BA342EE
:10035800FBD130BD64461346002CF4D1F9E70346BF
:100368001446C0E71A46A446E0E700BF53B94AB9A5
:10037800002908BF00281CBF4FF0FF314FF0FF30A5
:1003880000F06AB9ADF1080C6DE904CE00F006F88A
:10039800DDF804E0DDE9022304B070472DE9F047F9
:1003A800089D0E4604460F46002B4AD194468C45BC
:1003B800B2FA82F260D942B1C2F12003974020FA22
:1003C80003F30CFA02FC1F4394404FEA1C4E1FFA39
:1003D8008CF6B7FBFEF1230C0EFB117743EA0743BB
:1003E80001FB06F098420AD91CEB030301F1FF3721
:1003F80080F01581984240F21281023963441B1A39
:10040800A4B2B3FBFEF00EFB103344EA034400FB36
:1004180006F6A6420AD91CEB040400F1FF3380F06B
:100428000081A64240F2FD806444023840EA01405F
:10043800A41B00211DB1D4400023C5E90043BDE839
:10044800F0878B4205D90DB1C5E9000100210846A6
:10045800F5E7B3FA83F1002946D1B34202D38242C9
:1004680000F2F580841A66EB030201201746002D7E
:10047800E5D0C5E90047E2E7002A40F09380A1EB08
:100488000C034FEA1C471FFA8CFE0121B3FBF7F659
:1004980007FB1630230C43EA00430EFB06F0984294
:1004A80008D91CEB030306F1FF3802D2984200F288
:1004B800D08046461B1AA4B2B3FBF7F007FB1033F3
:1004C80044EA03440EFB00FEA64508D91CEB0404CD
:1004D80000F1FF3302D2A64500F2B6801846A4EB1D
:1004E8000E0440EA0640A5E7C1F120078B4022FA36
:1004F80007FC4CEA030C06FA01FE20FA07F426FA78
:1005080007F344EA0E0400FA01F84FEA1C404FEAE8
:100518001449B3FBF0FE1FFA8CF600FB1E3349EAC0
:1005280003430EFB06F9994502FA01F20BD91CEBBD
:1005380003030EF1FF3A80F08580994540F28280EE
:10054800AEF1020E6344A3EB0909A4B2B9FBF0F3C0
:1005580000FB139944EA094403FB06F6A64208D9AE
:100568001CEB040403F1FF3068D2A64266D9023BB3
:10057800644443EA0E40A41BA0FB02E6B44273465F
:10058800B14652D34FD05DB1B8EB030264EB090416
:1005980004FA07F722FA01F31F43CC40C5E90074B7
:1005A80000214CE7C2F1200120FA01F30CFA02FC09
:1005B80026FA01F1964033434FEA1C471FFA8CFE96
:1005C800B1FBF7F007FB1016190C41EA064100FBD6
:1005D8000EF68E4204FA02F408D91CEB010100F170
:1005E800FF382DD28E422BD902386144891B9BB229
:1005F800B1FBF7F607FB161143EA014306FB0EF1C0
:10060800994208D91CEB030306F1FF3814D299422A
:1006180012D9023E63445B1A46EA004136E739467E
:10062800EDE6184602E7F045ADD2BEEB020366EBF5
:100638000C060138B146A6E74646ECE7034698E7BC
:100648004046D3E7D6467EE76444023847E7084683
:100658000DE7023E63442DE7704700BF10B584B034
:100668000024009401940294039401F035FD0123C1
:100678008DF800308DF8014001941F228DF8082074
:1006880087228DF809208DF80A408DF80B408DF8E7
:100698000C308DF80D308DF80E408DF80F406846FF
:1006A80001F038FD042001F025FD04B010BD72B63C
:1006B800FEE7000000B595B03422002107A8FFF737
:1006C80003FE00230293039304930593069301F01A
:1006D80047FC234B1A6C42F080521A641B6C03F0DF
:1006E80080530093009B1F4A136823F4404343F44C
:1006F80080431360136803F440430193019B012373
:1007080007934FF4A023089302230D934FF480021C
:100718000E9204220F92602110911193129213935A
:1007280007A800F0A9FCA0B901F022FC98B90F2392
:10073800029302230393002304934FF480520592FB
:100748000693032102A800F027FF30B915B05DF821
:1007580004FBFFF7ACFFFFF7AAFFFFF7A8FF00BFF6
:10076800003802400070004008B5FFF777FF01F03D
:1007780023FDFFF79FFF00F009F800F0E1F800F013
:100788009DF900F0FDF900F07FF8FEE7F0B58DB0B7
:1007980000240794089409940A940B94364B1A6B16
:1007A80042F004021A631A6B02F004020192019AE1
:1007B8001A6B42F080021A631A6B02F080020292EE
:1007C800029A1A6B42F001021A631A6B02F00102D4
:1007D8000392039A1A6B42F002021A631A6B02F030
:1007E80002020492049A1A6B42F008021A631A6B06
:1007F80002F008020592059A1A6B42F040021A6349
:100808001B6B03F040030693069B1C4F224644F2E1
:100818008101384601F09EFB194D224640212846A9
:1008280001F098FB4FF4005307934FF48813089393
:10083800099407A9134801F08BFA44F2810307933E
:100848000126089609940A9407A9384601F080FA07
:1008580040230793089609940A9407A9284601F0AB
:1008680077FA802307930894099407A9284601F08A
:100878006FFA0DB0F0BD00BF00380240000402401E
:10088800001802400008024008B50D480D4B0360EF
:100898001023436000238360C3604FF4A0220261E9
:1008A8004FF480024261037643768376C3760377FA
:1008B800437700F005FA00B908BDFFF7F8FEFBE73B
:1008C800680100200064004000B589B0002303934C
:1008D80004930593069307930268174B9A4202D034
:1008E80009B05DF804FB03F5EA331A6C42F00072B4
:1008F8001A641A6C02F000720192019A1A6B42F0A3
:1009080008021A631B6B03F008030293029B03237C
:1009180003930222049206930923079303A9074825
:1009280001F016FA00221146142001F0A3FB14204E
:1009380001F0B0FBD4E700BF00640040000C0240A7
:1009480010B51548154B0360154B00221A7080210D
:100958005970E1219970DA701A715A7143604FF435
:10096800000383600F4BC3600F4B036140F2F453E5
:10097800436101F015FE58B90C4C3822002120467D
:10098800FFF7A2FC212323604FF44003636110BDED
:10099800FFF78DFEF0E700BF9801002000800240BD
:1009A800900100200C000020AC000020480200202C
:1009B80070B58CB000230793089309930A930B939F
:1009C8000268394B9A4201D00CB070BDA3F5904330
:1009D8001A6B42F000721A631A6B02F000720092EE
:1009E800009A1A6B42F080621A631A6B02F08062F6
:1009F8000192019A1A6B42F000621A631A6B02F0B4
:100A080000620292029A1A6B42F004021A631A6B8D
:100A180002F004020392039A1A6B42F001021A636D
:100A28001A6B02F001020492049A1A6B42F0020255
:100A38001A631A6B02F002020592059A1A6B42F0C9
:100A480040021A631B6B03F040030693069B322394
:100A58000793022408940A940B250B9507A91348B9
:100A680001F076F9862307930894002609960A94DC
:100A78000B9507A90E4801F06BF94FF40053079343
:100A8800089409960A940B9507A90A4801F060F999
:100A98004FF420530793089409960A940B9507A9D5
:100AA800054801F055F98FE7008002400008024030
:100AB80000000240000402400018024008B50B483C
:100AC8000B4B03604FF4E133436000238360C36042
:100AD80003610C2242618361C3610362436202F0D5
:100AE800ACF800B908BDFFF7E2FDFBE78002002083
:100AF8000048004010B5ACB0044600212791289169
:100B080029912A912B91902203A8FFF7DDFB2268F7
:100B1800184B9A4201D02CB010BD4FF48073039348
:100B280003A800F015FE10BB134B1A6C42F4802288
:100B38001A641A6C02F480220192019A1A6B42F02C
:100B480008021A631B6B03F008030293029B4FF41D
:100B580040732793022328930023299303232A937E
:100B680007232B9327A9054801F0F2F8D3E7FFF7ED
:100B78009EFDD9E70048004000380240000C0240C2
:100B880008B50C484FF0A043036006230371022206
:100B9800C27100238371427201228272C37203738D
:100BA8008273C37302F07AF800B908BDFFF77FFDBE
:100BB800FBE700BF0803002070B5ACB00446002175
:100BC8002791289129912A912B91902203A8FFF728
:100BD8007BFB2368B3F1A04F01D02CB070BD4FF45C
:100BE8000013039303A800F0B3FD002835D11C4C73
:100BF800236B43F001032363236B03F0010300938A
:100C0800009B4FF4E8532793022328930025299546
:100C180003232A930A232B93124E27A9304601F067
:100C280097F84FF4007327932895299527A93046FC
:100C380001F08EF8636B43F080036363636B03F02A
:100C480080030193019B636C43F480436364636C8A
:100C580003F480430293029BBFE7FFF728FDC6E732
:100C68000038024000000240FEE7FEE7FEE7FEE72C
:100C7800FEE770477047704708B501F0A9FA08BD4C
:100C880008B5024800F0CFF808BD00BF6801002091
:100C980082B00A4B1A6C42F080521A641A6C02F045
:100CA80080520092009A5A6C42F480425A645B6CFB
:100CB80003F480430193019B02B07047003802405F
:100CC800002800F0A18038B5044690F82030D3B150
:100CD8002268136843F00103136001F085FA0546A2
:100CE80023685A6812F0010F10D101F07DFA401BF9
:100CF8000A28F5D9636A43F400336362052384F84C
:100D08002030012038BDFFF7DFFDE1E71A6822F047
:100D180002021A6001F068FA054623685A6812F060
:100D2800020F0DD001F060FA401B0A28F5D9636A5A
:100D380043F400336362052384F820300120E1E79F
:100D4800227E012A3DD01A6822F080021A60637E52
:100D5800012B3BD02268136823F040031360A37E65
:100D6800012B39D02268136823F020031360E37E37
:100D7800012B37D02268136843F010031360237FD8
:100D8800012B35D02268136823F008031360637FB2
:100D9800012B33D02268136823F004031360A3687F
:100DA800E268134322691343626913436268013A94
:100DB80021681343CB6100206062012384F820304E
:100DC800A0E71A6842F080021A60C0E72268136838
:100DD80043F040031360C2E72268136843F020031E
:100DE8001360C4E72268136823F010031360C6E792
:100DF8002268136843F008031360C8E72268136881
:100E080043F004031360CAE7012070477047704736
:100E18007047704770477047704770477047704712
:100E28007047704770472DE9F84F054603685C69BD
:100E3800D3F804809F68D3F80CA0D3F81090D3F8A7
:100E480018B014F001063BD017F0010616D00122A5
:100E58009A6017F0020F08D117F0040F0CD117F0A1
:100E6800080606D04FF4805608E0FFF7CFFF0026AB
:100E780004E0FFF7CEFF01E04FF4006617F4807F2F
:100E88000DD02B684FF480729A6017F4007F40F001
:100E9800968017F4806F00F0968046F4005617F499
:100EA800803F0DD02B684FF480329A6017F4003FD2
:100EB80040F0938017F4802F00F0938046F40046AA
:100EC80014F0080F07D01AF0100F04D046F400767B
:100ED8002B681022DA6014F0040F03D01AF0080F00
:100EE80040F0898014F0020F05D02B68DB6813F0FE
:100EF800030F40F0878014F0400F07D019F0100F4F
:100F080004D046F480662B6810221A6114F0200F72
:100F180002D019F0080F79D114F0100F04D02B6803
:100F28001B6913F0030F78D114F4003F02D018F0B6
:100F3800100F76D114F4803F02D018F0080F77D143
:100F480014F4004F37D018F0040F31D014F4807F18
:100F580004D01BF0010F01D046F0010614F4007F05
:100F680004D01BF0020F01D046F0020614F4806F83
:100F780004D01BF0040F01D046F0040614F4006FEF
:100F880016D01BF0700B13D0BBF1400F66D056D8AB
:100F9800BBF1200F5CD0BBF1300F5CD0BBF1100F60
:100FA80001D146F008062A68936923F0700393611B
:100FB8002B6804225A60002E56D1BDE8F88F2846C7
:100FC800FFF725FF6BE717F4006F02D046F4804661
:100FD80065E72846FFF71EFF61E72846FFF718FF79
:100FE8006EE717F4002F02D046F4803668E72846EB
:100FF800FFF711FF64E72B680822DA602846FFF73D
:101008000CFF6FE72846FFF707FF74E72B680822F5
:101018001A612846FFF703FF7EE72846FFF7FEFE22
:1010280082E72B6810225A602846FFF7F9FE81E70D
:101038002B6808225A602846FFF7F3FE80E7BBF1C9
:10104800500F0ED0BBF1600FADD146F48076AAE701
:1010580046F01006A7E746F02006A4E746F040064B
:10106800A1E746F080069EE76B6A33436B62284629
:10107800FFF7D8FEA1E70000002800F0068270B54F
:1010880082B00446036813F0010F29D0954B9B6882
:1010980003F00C03042B1AD0924B9B6803F00C034B
:1010A800082B0FD06368B3F5803F40D0002B54D194
:1010B8008C4B1A6822F480321A601A6822F4802253
:1010C8001A6039E0874B5B6813F4800FEAD0854BD0
:1010D8001B6813F4003F03D06368002B00F0D7812E
:1010E800236813F0020F74D07E4B9B6813F00C0F2B
:1010F8005ED07C4B9B6803F00C03082B53D0E3684D
:10110800002B00F08980774A136843F001031360CD
:1011180001F06AF80546734B1B6813F0020F72D191
:1011280001F062F8401B0228F5D90320B4E16D4AAA
:10113800136843F48033136063682BB301F054F8E9
:101148000546684B1B6813F4003FC9D101F04CF801
:10115800401B6428F5D903209EE1B3F5A02F09D0E0
:10116800604B1A6822F480321A601A6822F48022CE
:101178001A60E1E75B4B1A6842F480221A601A6829
:1011880042F480321A60D7E701F02EF80546554B35
:101198001B6813F4003FA3D001F026F8401B642815
:1011A800F5D9032078E14F4B5B6813F4800FA6D183
:1011B8004C4B1B6813F0020F03D0E368012B40F07F
:1011C8006881484A136823F0F803216943EAC10398
:1011D8001360236813F0080F46D0636983B3414A4C
:1011E800536F43F00103536700F0FEFF05463D4B84
:1011F8005B6F13F0020F37D100F0F6FF401B022897
:10120800F5D9032048E1374A136823F0F803216928
:1012180043EAC1031360DCE7324A136823F0010391
:10122800136000F0E1FF05462E4B1B6813F0020F18
:10123800CFD000F0D9FF401B0228F5D903202BE1BD
:10124800284A536F23F00103536700F0CDFF05468A
:10125800244B5B6F13F0020F06D000F0C5FF401B54
:101268000228F5D9032017E1236813F0040F7DD075
:101278001C4B1B6C13F0805F1ED11A4B1A6C42F08A
:1012880080521A641B6C03F080530193019B012563
:10129800154B1B6813F4807F10D0A368012B25D051
:1012A800002B3BD10F4B1A6F22F001021A671A6FFD
:1012B80022F004021A671EE00025E9E70A4A1368CB
:1012C80043F48073136000F08FFF0646064B1B68DB
:1012D80013F4807FE1D100F087FF801B6428F5D9E3
:1012E8000320D9E00038024000700040724A136FB2
:1012F80043F001031367A36833B300F075FF064694
:101308006D4B1B6F13F0020F2FD100F06DFF801B88
:1013180041F288339842F3D90320BDE0052B09D068
:10132800654B1A6F22F001021A671A6F22F0040245
:101338001A67E0E7604B1A6F42F004021A671A6FE7
:1013480042F001021A67D6E700F04EFF06465A4BF4
:101358001B6F13F0020F08D000F046FF801B41F20C
:1013680088339842F3D9032096E0FDB9A369002B8E
:1013780000F09180504A926802F00C02082A59D075
:10138800022B19D04C4A136823F08073136000F0C5
:101398002BFF0446484B1B6813F0007F48D000F031
:1013A80023FF001B0228F5D9032075E0424A136C7D
:1013B80023F080531364D9E73F4A136823F08073FE
:1013C800136000F011FF05463B4B1B6813F0007FCC
:1013D80006D000F009FF401B0228F5D903205BE086
:1013E800E369226A1343626A43EA8213A26A5208D3
:1013F800013A43EA0243E26A43EA0263226B43EAA0
:1014080002732D4A5360136843F08073136000F031
:10141800EBFE0446284B1B6813F0007F06D100F052
:10142800E3FE001B0228F5D9032035E0002033E055
:10143800002031E0204A5268012B2FD002F48003AB
:10144800E1698B422CD102F03F03216A8B4229D1FA
:10145800616A47F6C0731340B3EB811F24D102F4CD
:101468004031A36A5B08013BB1EB034F1ED102F088
:101478007063E16AB3EB016F1AD102F0E042236BAB
:10148800B2EB037F16D1002006E00120704701204F
:1014980002E0012000E0002002B070BD0120FBE75F
:1014A8000120F9E70120F7E70120F5E70120F3E73C
:1014B8000120F1E70120EFE70038024008B5334B7F
:1014C8009B6803F00C03042B5BD0082B5BD12F4BDC
:1014D8005A6802F03F025B6813F4800F2CD02B4B44
:1014E8005868C0F388104FEA401CBCEB000C6EEB48
:1014F8000E0E4FEA8E1343EA9C634FEA8C11B1EB50
:101508000C0163EB0E03DB0043EA5173C90011EBD6
:10151800000C43F10003590200234FEA4C2041EA32
:10152800DC51FEF723FF194B5B68C3F3014301331A
:101538005B00B0FBF3F008BD144B5868C0F388108B
:101548004FEA401CBCEB000C6EEB0E0E4FEA8E13FC
:1015580043EA9C634FEA8C11B1EB0C0163EB0E0379
:10156800DB0043EA5173C90011EB000C43F100039F
:10157800990200234FEA8C2041EA9C51FEF7F6FEBF
:10158800D1E70348D7E70348D5E700BF0038024052
:1015980000127A000024F400002800F0A08070B542
:1015A8000D460446524B1B6803F00F038B420BD2C7
:1015B8004F4A136823F00F030B431360136803F0BB
:1015C8000F038B4240F08D80236813F0020F17D071
:1015D80013F0040F04D0474A936843F4E053936030
:1015E800236813F0080F04D0424A936843F4604319
:1015F8009360404A936823F0F003A1680B4393601B
:10160800236813F0010F31D06368012B20D0022B1F
:1016180025D0384A126812F0020F64D035498A681A
:1016280022F0030213438B6000F0DEFD0646314BC7
:101638009B6803F00C036268B3EB820F16D000F0CE
:10164800D3FD801B41F288339842F0D9032045E04E
:10165800284A126812F4003FE0D101203EE0254AF2
:10166800126812F0007FD9D1012037E0204B1B68A7
:1016780003F00F03AB420AD91D4A136823F00F0386
:101688002B431360136803F00F03AB422DD123687B
:1016980013F0040F06D0174A936823F4E053E16867
:1016A8000B439360236813F0080F07D0114A93681F
:1016B80023F46043216943EAC1039360FFF7FEFE08
:1016C8000C4B9B68C3F303130B4AD35CD8400B4BFA
:1016D80018600B4B186800F049FD002070BD012010
:1016E80070470120FAE70120F8E70120F6E700BF7C
:1016F800003C024000380240043200080800002084
:1017080004000020014B1868704700BF0800002043
:1017180008B5FFF7F7FF044B9B68C3F38223034A1E
:10172800D35CD84008BD00BF00380240FC31000837
:1017380008B5FFF7E7FF044B9B68C3F34233034A3E
:10174800D35CD84008BD00BF00380240FC31000817
:10175800F0B583B00446066816F001060DD0B54B07
:101768009A6822F400029A609A68416B0A439A6068
:10177800436B002B00F067810026256815F40025CF
:1017880011D0AC4AD2F88C3023F44013E16B0B43F0
:10179800C2F88C30E36BB3F5801F00F05681002B44
:1017A80000F055810025236813F4801F0FD0A14A4B
:1017B800D2F88C3023F44003216C0B43C2F88C30F0
:1017C800236CB3F5800F00F0448103B90125236829
:1017D80013F0807F00D0012613F0200F40F03B81EA
:1017E800236813F0100F0CD0924BD3F88C2022F002
:1017F8008072C3F88C20D3F88C20A16B0A43C3F8FD
:101808008C20236813F4804F08D08A4AD2F890308D
:1018180023F44033616E0B43C2F89030236813F40D
:10182800004F08D0834AD2F8903023F44023A16EA9
:101838000B43C2F89030236813F4803F08D07D4AE8
:10184800D2F8903023F44013E16E0B43C2F8903085
:10185800236813F4003F08D0764AD2F8903023F476
:101868004003216F0B43C2F89030236813F0400FF8
:1018780008D0704AD2F8903023F00303616C0B4310
:10188800C2F89030236813F0800F08D0694AD2F864
:10189800903023F00C03A16C0B43C2F890302368FE
:1018A80013F4807F08D0634AD2F8903023F03003D5
:1018B800E16C0B43C2F89030236813F4007F08D022
:1018C8005C4AD2F8903023F0C003216D0B43C2F874
:1018D8009030236813F4806F08D0564AD2F89030BD
:1018E80023F44073616D0B43C2F89030236813F4FE
:1018F800006F08D04F4AD2F8903023F44063A16DAE
:101908000B43C2F89030236813F4805F08D0494A2B
:10191800D2F8903023F44053E16D0B43C2F8903075
:10192800236813F4005F08D0424AD2F8903023F4B9
:101938004043216E0B43C2F89030236813F4800FA4
:1019480008D03C4AD2F8903023F08063A16F0B4353
:10195800C2F89030236813F4001F0DD0354AD2F82E
:10196800903023F00063E16F0B43C2F89030E36FCF
:10197800B3F1006F00F0D580236813F0080F00D092
:10198800012513F4802F08D02A4AD2F8903023F08A
:101998004073616F0B43C2F89030236813F4000F53
:1019A80009D0244AD2F8903023F08053D4F880101C
:1019B8000B43C2F89030236813F0806F09D01D4A9A
:1019C800D2F8903023F00053D4F884100B43C2F8B7
:1019D8009030236813F0006F09D0164AD2F88C3083
:1019E80023F00073D4F888100B43C2F88C302368B6
:1019F80013F0805F09D00F4AD2F88C3023F080634F
:101A0800D4F88C100B43C2F88C3026B9236813F035
:101A1800007F00F00681074A136823F08063136093
:101A280000F0E2FB0646034B1B6813F0006F7AD008
:101A380002E000BF0038024000F0D6FB801B64289B
:101A4800F1D90320F0E0012697E60126A7E6012553
:101A5800A9E60126B9E67F4B1A6C42F080521A6457
:101A68001B6C03F080530193019B7B4A136843F47A
:101A78008073136000F0B8FB0746774B1B6813F4BC
:101A8800807F06D100F0B0FBC01B6428F5D9032085
:101A9800CAE0704B1B6F13F4407315D0226B02F42D
:101AA80040729A4210D06B4B1A6F22F44072196F31
:101AB80041F480311967196F21F4803119671A6769
:101AC8001B6F13F0010F12D1236B03F44072B2F5B0
:101AD800407F1DD05F4A936823F4F81393605D49F3
:101AE8000B6F226BC2F30B0213430B6778E600F00F
:101AF8007BFB0746574B1B6F13F0020FE4D100F036
:101B080073FBC01B41F288339842F3D903208BE062
:101B18005048826822F4F812504919400A438260FA
:101B2800DDE7012528E7236813F0010F13D0636B65
:101B38008BB9484AD2F88430D2F88410606803F42C
:101B4800403343EA801301F070610B43A16843EA14
:101B58000173C2F88430236813F4002F03D0E26BBA
:101B6800B2F5801F06D013F4801F1ED0236CB3F586
:101B7800800F1AD1374AD2F88430D2F884106068BE
:101B880003F4403343EA8013E06843EA006301F05A
:101B9800E0410B43C2F88430D2F88C3023F01F03A5
:101BA800616A01390B43C2F88C30236813F0807FD7
:101BB80011D0284AD2F88400D2F8841066682369C4
:101BC8001B0443EA861300F07060034301F0E04110
:101BD8000B43C2F88430236813F0007F0DD062688D
:101BE80023691B0443EA8213E26843EA0263A2689A
:101BF80043EA0273174AC2F88430164A136843F05E
:101C08008063136000F0F0FA0646124B1B6813F06D
:101C1800006F06D100F0E8FA801B6428F5D903208C
:101C280002E0012D02D0002003B0F0BD094A13687C
:101C380023F08053136000F0D7FA0546054B1B6864
:101C480013F0005F0CD000F0CFFA401B6428F5D9E0
:101C58000320E9E70038024000700040FFFCFF0F56
:101C6800236813F4002F01D0E26B22B113F4801F14
:101C78001DD0236CDBB9354AD2F88830D2F88810E9
:101C8800606903F4403343EA8013A06943EA0063C0
:101C980001F0E0410B43C2F88830D2F88C3023F4CD
:101CA800F853A16A013943EA0123C2F88C3023684A
:101CB80013F4001F03D0E36FB3F1006F31D0236832
:101CC80013F0080F19D0214AD2F88810D2F88830BA
:101CD800606903F4403343EA801301F070610B43F9
:101CE800E16943EA0173C2F88830D2F88C3023F4F2
:101CF8004033E16A0B43C2F88C30144A136843F04E
:101D08008053136000F070FA0446104B1B6813F000
:101D1800005F19D100F068FA001B6428F5D9032088
:101D280082E70A4AD2F88800D2F888106569236ADF
:101D38001B0443EA851300F07060034301F0E0419F
:101D48000B43C2F88830BAE700206DE7003802403C
:101D580000230F2B00F2F48070B582B066E085682E
:101D68004FEA430E032404FA0EF425EA0405CC686E
:101D780004FA0EF42C438460446824EA02044A6896
:101D8800C2F300129A40224342605DE0DC08083446
:101D980050F8242003F00705AD004FF00F0E0EFA9F
:101DA80005FE22EA0E0E0A69AA4042EA0E0240F82F
:101DB80024205DE0092200E0002202FA0EF22A4304
:101DC8000234604D45F824205F4A94686FEA0C029B
:101DD80024EA0C054E6816F4801F01D04CEA04056D
:101DE800594CA560E46802EA04054E6816F4001F21
:101DF80001D04CEA0405544CE560646802EA040525
:101E08004E6816F4003F01D04CEA04054E4C65605C
:101E1800246822404D6815F4803F01D04CEA040242
:101E2800494C226001330F2B00F2888001229A402E
:101E38000C6804EA020C32EA0404F3D14C6804F09A
:101E48000304013C012C8AD94A6802F00302032AE0
:101E580009D0C4685D000322AA4024EA02048A6803
:101E6800AA402243C2604A6802F00302022A8DD0C7
:101E780004684FEA430E032202FA0EF224EA02042F
:101E88004A6802F0030202FA0EF2224302604A682C
:101E980012F4403FC6D02D4A546C44F48044546434
:101EA800526C02F480420192019A9C08A51C254AB2
:101EB80052F8255003F0030E4FEA8E0E0F2202FA55
:101EC8000EF225EA0205224A90423FF475AF02F568
:101ED8008062904222D002F58062904220D002F5C2
:101EE800806290421ED002F5806290421CD002F5BA
:101EF800806290421AD002F58062904218D002F5B2
:101F08008062904216D002F58062904214D002F5A9
:101F1800806290423FF44EAF0A224EE701224CE71E
:101F280002224AE7032248E7042246E7052244E75B
:101F3800062242E7072240E708223EE702B070BDCA
:101F4800704700BF00380140003C014000380240A3
:101F5800000002400AB1816170470904816170473D
:101F6800024A136843F4807313607047007000409E
:101F780010B582B01B4B1A6C42F080521A641B6C6D
:101F880003F080530193019B174A136843F480338D
:101F9800136000F029F90446134B5B6813F4803F83
:101FA80008D100F021F9001BB0F57A7FF4D903209D
:101FB80002B010BD0C4A136843F40033136000F0FC
:101FC80013F90446084B5B6813F4003F07D100F08F
:101FD8000BF9001BB0F57A7FF4D90320E8E700205D
:101FE800E6E700BF0038024000700040002804DB2C
:101FF8000901C9B2044B1954704700F00F000901D8
:10200800C9B2024B1954704700E400E014ED00E037
:1020180000B500F00700C0F1070CBCF1040F28BFA1
:102028004FF0040C031D062B0FD9C31E4FF0FF3EC3
:102038000EFA0CF021EA000199400EFA03FE22EA9A
:102048000E0241EA02005DF804FB0023EEE70000FF
:102058000649CB6823F4E0631B041B0C000200F460
:10206800E0600343024A1A43CA60704700ED00E08B
:102078000000FA0510B50446054BD868C0F30220E5
:10208800FFF7C6FF01462046FFF7B0FF10BD00BFAF
:1020980000ED00E0002807DB00F01F0240090123E3
:1020A8009340024A42F82030704700BF00E100E048
:1020B8000138B0F1807F0BD24FF0E0235861054A18
:1020C800F02182F823100020986107221A617047D6
:1020D8000120704700ED00E0BFF35F8F044B5A6AA0
:1020E80022F480325A620022C3F89420704700BF5D
:1020F80000ED00E040F00100054BC3F894005A6A77
:1021080042F480325A62BFF34F8FBFF36F8F70472C
:1021180000ED00E04378144AC2F89830D2F8A030B5
:1021280023F00103C2F8A0304368C2F89C30017B59
:10213800C37A1B0643EA0173817A43EAC143417BB0
:1021480043EA8143817B43EA4143C17B43EA01433C
:10215800417A43EA0123017A43EA410301780B43B8
:10216800C2F8A030704700BF00ED00E010B504468B
:102178000E4B1A784FF47A73B3FBF2F30C4A1068DB
:10218800B0FBF3F0FFF794FF68B90F2C01D90120D9
:102198000AE0002221464FF0FF30FFF76BFF054BA6
:1021A8001C60002000E0012010BD00BF00000020DE
:1021B800080000200400002008B50320FFF748FFAE
:1021C8000020FFF7D3FFFEF763FD002008BD0000E5
:1021D800034A1168034B1B780B441360704700BF18
:1021E800E807002000000020014B1868704700BF76
:1021F800E807002038B50446FFF7F6FF0546B4F1B6
:10220800FF3F02D0044B1B781C44FFF7EDFF401B37
:10221800A042FAD338BD00BF0000002050791379DE
:1022280043EA002307480B50D07893781B0443EA0D
:102238000063507843EA002312781343024A8B5014
:10224800704700BF408002404480024030B4002202
:1022580008E0C468DC6051F80C3043F4400341F8EE
:102268000C300132032A1FD8C16802EB82034FEAFF
:10227800C30C01EBC303002441F80C405C609C6074
:10228800DC60941D40F8243051F80C4044F480146C
:1022980041F80C40022ADCD8541C04EB8404C568BD
:1022A80005EBC404DC60D6E700238362C2680368D8
:1022B80003F580531A6130BC704710B4002202E065
:1022C8000169D9600132032A28D8046902EB820324
:1022D8004FEAC30C04EBC303002144F80C10596007
:1022E8009960D960196259624FF0004144F80C10A6
:1022F800416941F480415960596821F000415960B1
:1023080002F1120140F82130022AD9D80469511C7F
:1023180001EB810104EBC104DC60D3E70023C36552
:1023280003668366C36683650269036803F58053A1
:10233800DA605DF8044B704770B505460C460268D4
:1023480013683C491940A37B5B06207C002861D1B7
:102358004FF400000343607C00285DD14FF48000F7
:102368000343A0680343E07F43EA004360690343F3
:10237800A07F002852D14FF400500343207F43EA46
:102388000033A0690343207943EA802394F82000AE
:10239800002845D14FF400700343E07B43EAC013A3
:1023A800606A034394F8280043EA00130B43136060
:1023B8002B681E680120FFF71DFF2B681E60296827
:1023C8008A6922F0BE021204120CA36C1B0494F852
:1023D8004C0038BB80200343206D034394F855001C
:1023E800012821D00020034394F8560001281DD06D
:1023F8000020034394F85400012819D00020034317
:1024080013438B612B689C690120FFF7F3FE2B684F
:102418009C6170BD00209DE70020A1E70020ACE78B
:102428000020B9E70020D6E70820DCE70420E0E731
:102438000220E4E70F8120FD70B505460C460268CE
:1024480002F580539B692B491940237B002B4DD102
:102458004FF08063607B43EA4063607F002847D188
:102468004FF480100343A07B43EA40536069034361
:10247800207F43EAC013A07F43EA8013206A034306
:1024880094F8240043EA80030B4302F580529361D9
:102498002B6803F580539E690120FFF7ABFE2B687C
:1024A80003F580539E612279A36843EA4263A269D7
:1024B80013432269134394F8252043EAC213A26AFE
:1024C80043EA8203226813432A6843F4000302F5AF
:1024D800805213602B6803F580531C680120FFF7B6
:1024E80089FE2B6803F580531C6070BD0023B1E79B
:1024F8000020B7E7233FDEF870B5A4B006460125F3
:102508008DF83C508DF83D5000240D948DF84B40CB
:102518008DF84A508DF848408DF83A508DF8305073
:102528008DF84C408DF83B4014948DF854401D9420
:102538008DF878401F948DF882408DF880404FF4D4
:10254800804310934FF4006311938DF881400BA9D9
:10255800FFF7F2FE8DF80C508DF80D508DF81D50D8
:102568008DF80E5005948DF81C408DF81E40089487
:102578008DF824508DF804504FF4803302934FF4B3
:10258800800306934FF4005304938DF825500A9462
:10259800009469463046FFF74FFF24B070BD000035
:1025A800002868D030B583B00446D0F88430002BBA
:1025B80032D0324B5A6C42F480425A645B6C03F45A
:1025C80080430193019B2E4B5A6822F400025A6003
:1025D8005A68A1680A435A605B68236803F5805308
:1025E8001A6842F001021A60FFF7FEFD05462368EB
:1025F80003F580531B6813F0010F13D0FFF7F4FDA8
:10260800401BB0F5FA7FF2D90423C4F88830E023E0
:10261800C4F8843001202CE02023C0F88430FEF771
:10262800C7F9C6E72046FFF767FF2046FFF70EFE0B
:102638002046FFF742FE626800212046FFF7EEFDC4
:102648002268D36B43F40273D3632268D2F80C1167
:102658000C4B0B43C2F80C312268D2F8103143F40A
:102668000313C2F810310020C4F888001023C4F8FE
:10267800843003B030BD0120704700BF00380240ED
:102688000038014060000200026852E8003F23F46D
:10269800907342E800310029F6D1026802F108037C
:1026A80053E8003F23F00103083242E800310029D3
:1026B800F3D1036E012B06D02023C0F8803000230D
:1026C800036683667047026852E8003F23F01003F0
:1026D80042E800310029F6D1EEE7000010B50446C3
:1026E80083680269134342691343C269134301684B
:1026F8000868914A02401A430A602268536823F422
:102708004053E1680B435360A269236A1A43216866
:102718008B6823F4306313438B602368874A9342A2
:1027280018D0874A93423AD0864A93424FD0864A75
:1027380093425ED0854A93426DD0854A93427FD0BA
:10274800844A934200F09180834A934200F0A28029
:1027580010230BE0814BD3F8903003F00303032BD5
:102768001BD8DFE803F00216AB180123E069B0F5C7
:10277800004F00F0D780082B00F23881DFE813F013
:1027880014012701120136012A01360136013601EA
:102798002D010423EAE70823E8E71023E6E76F4B57
:1027A800D3F8903003F00C030C2B0ED8DFE803F0BD
:1027B800070D0D0D090D0D0D880D0D0D0B000023D6
:1027C800D4E70423D2E70823D0E71023CEE7634BEE
:1027D800D3F8903003F03003202B73D005D8002BAA
:1027E80072D0102B72D10423C0E7302B70D108238C
:1027F800BCE75A4BD3F8903003F0C003802B69D064
:1028080005D8002B68D0402B68D10423AEE7C02B35
:1028180066D10823AAE7514BD3F8903003F44073EC
:10282800B3F5007F5ED006D8002B5DD0B3F5807F6E
:102838005CD104239AE7B3F5407F59D1082395E783
:10284800464BD3F8903003F44063B3F5006F51D092
:1028580006D8002B50D0B3F5806F4FD1042385E7FD
:10286800B3F5406F4CD1082380E73C4BD3F8903048
:1028780003F44053B3F5005F44D006D8002B43D08F
:10288800B3F5805F42D1042370E7B3F5405F3FD1D1
:1028980008236BE7314BD3F8903003F44043B3F58A
:1028A800004F37D005D8BBB3B3F5804F36D10423DA
:1028B8005CE7B3F5404F33D1082357E7022355E7C8
:1028C800022353E7022351E700234FE710234DE784
:1028D80010234BE7022349E7002347E7102345E786
:1028E800102343E7022341E700233FE710233DE796
:1028F80010233BE7022339E7012337E7102335E7A5
:10290800102333E7022331E700232FE710232DE7B5
:1029180010232BE7022329E7002327E7102325E7C5
:10292800102323E7082B5BD8DFE803F01A343A5A60
:10293800375A5A5A1E0000BFF369FFEF00100140D2
:102948000044004000480040004C00400050004057
:102958000014014000780040007C0040003802402C
:10296800FEF7D6FE00283DD06268530803EB40030B
:10297800B3FBF2F3A3F110014FF6EF72914233D893
:102988009AB222F00F02C3F3420313432268D360C2
:10299800002030E0FEF7CCFEE4E7FEF78FFDE1E72C
:1029A8001748E1E7164802E0FEF7B2FE00B3636895
:1029B80000EB5300B0FBF3F0A0F110024FF6EF73F9
:1029C8009A4217D8236880B2D860002013E0FEF737
:1029D800AFFEEBE7FEF772FDE8E74FF40040E6E7ED
:1029E800012008E0002006E0012004E0012002E0C8
:1029F800002000E001200023A366E36610BD00BFAD
:102A08000024F400436A13F0080F06D002685368E4
:102A180023F40043416B0B435360436A13F0010FE7
:102A280006D00268536823F40033816A0B4353606D
:102A3800436A13F0020F06D00268536823F4803308
:102A4800C16A0B435360436A13F0040F06D002684F
:102A5800536823F48023016B0B435360436A13F0DC
:102A6800100F06D00268936823F48053816B0B43E0
:102A78009360436A13F0200F06D00268936823F42A
:102A88000053C16B0B439360436A13F0400F0AD0A5
:102A98000268536823F48013016C0B435360036C82
:102AA800B3F5801F0BD0436A13F0800F06D002687D
:102AB800536823F40023816C0B435360704702680A
:102AC800536823F4C003416C0B435360EBE72DE9D3
:102AD800F84305460E4617469946DDF820802B68D0
:102AE800DC6936EA04040CBF01240024BC423AD154
:102AF800B8F1FF3FF3D0FFF777FBA0EB09004045A3
:102B080034D8B8F1000F33D02B681A6812F0040FCC
:102B1800E5D0B6F1400218BF0122802EDFD0002A8E
:102B2800DDD0DA6912F0080F11D1DA6912F4006FFA
:102B3800D5D04FF400621A622846FFF7A5FD20237E
:102B4800C5F88430002385F8783003200CE0082489
:102B58001C622846FFF798FDC5F88440002385F8D5
:102B68007830012000E00020BDE8F8830320FBE76F
:102B78000320F9E730B583B004460023C0F8843059
:102B8800FFF732FB05462268126812F0080F0FD1D2
:102B980023681B6813F0040F26D12023E367C4F8C9
:102BA800803000202066606684F8780003B030BD6D
:102BB8006FF07E430093034600224FF40011204635
:102BC800FFF785FF0028E3D0226852E8003F23F092
:102BD800800342E800310029F6D12023E36700236F
:102BE80084F878300320E1E76FF07E4300932B46AA
:102BF80000224FF480012046FFF769FF0028CCD05F
:102C0800226852E8003F23F4907342E8003100291B
:102C1800F6D1226802F1080353E8003F23F00103CC
:102C2800083242E800310029F3D12023C4F880306B
:102C3800002384F878300320B8E768B310B5044659
:102C4800C36F03B32423E3672268136823F00103E7
:102C58001360636AE3B92046FFF740FD012811D0ED
:102C68002268536823F4904353602268936823F0E2
:102C78002A0393602268136843F001031360204617
:102C8800FFF778FF10BD80F87830FDF733FFD9E7FC
:102C98002046FFF7B7FEDEE70120704730B583B066
:102CA800002800F082800446056890F89534C3B186
:102CB800032384F89534B5F1A04F17D0206800F0AD
:102CC800F9F8237C8DF80030231D0ECB206800F026
:102CD800AFF870B1022384F895340125284603B073
:102CE80030BD80F89434FDF767FFE1E70023A37156
:102CF800E4E70021206800F00BFA024608B9034611
:102D080017E0022384F895340125E7E703EBC301B4
:102D180004EB8101012048750B75CB8500200876EE
:102D2800C861086203EBC30104EB81014862013307
:102D3800DBB220799842E9D816E002EBC20304EB33
:102D48008303002183F8551283F8542283F858121C
:102D5800C3F85C12C3F8601202EBC20304EB8303EE
:102D6800C3F864120132D2B29042E6D8237C8DF8BF
:102D78000030231D0ECB206800F0F2F8054658B944
:102D880000236374012384F89534237B012B08D036
:102D9800206800F0ABF9A1E7022384F895340125F7
:102DA8009CE7204600F004F8F2E7012596E70000CA
:102DB800034602680121C0F8D814002083F8CC0427
:102DC800936943F000639361516D024B0B43536564
:102DD800704700BF0300001082B000230193019BDD
:102DE80001330193019BB3F1706F1CD80369002B69
:102DF800F5DA0A23019302E0019B013B0193019B51
:102E0800002BF9D1036943F001030361019B0133EE
:102E18000193019BB3F1706F08D8036913F0010F98
:102E2800F4D1002000E0032002B070470320FBE744
:102E380084B010B5044603A880E80E009DF8113050
:102E4800012B1FD1A36B23F48033A363E268184BD3
:102E58001340E360E36823F44013E3609DF81830FF
:102E6800012B0AD02046FFF7B7FF9DF80E30012B43
:102E780014D0BDE8104004B07047E36843F48013F1
:102E8800E360EFE7E36843F04003E3602046FFF7C1
:102E9800A3FFA36B43F48033A363E6E7A36843F07F
:102EA8000603A360A36843F02003A360E1E700BF23
:102EB800BFFFBDFF836823F00103836000207047D4
:102EC80082B000230193019B01330193019BB3F16D
:102ED800706F15D80369002BF5DA00230193890177
:102EE80041F020010161019B01330193019BB3F182
:102EF800706F08D8036913F0200FF4D1002000E0A8
:102F0800032002B070470320FBE782B0002301933F
:102F1800019B01330193019BB3F1706F13D80369CF
:102F2800002BF5DA0023019310230361019B013381
:102F38000193019BB3F1706F08D8036913F0100F68
:102F4800F4D1002000E0032002B070470320FBE723
:102F5800D0F800381943C0F8001800207047000066
:102F680084B0F8B5044607A880E80E00002306E000
:102F780003F1400204EB82020021516001330E2B61
:102F8800F6D99DF8266006BBD4F8043843F002034E
:102F9800C4F80438A36B23F40013A363236843F035
:102FA80040032360236843F0800323600023C4F8B0
:102FB800003E9DF82130012B11D19DF81F304BB9EF
:102FC80000212046FFF7C4FF0DE0A36B43F4001374
:102FD800A363EBE701212046FFF7BAFF03E00321D3
:102FE8002046FFF7B5FF10212046FFF769FF054689
:102FF80000B101252046FFF788FF00B1012504F53F
:10300800006C0023CCF81030CCF81430CCF81C300D
:103018000AE0CBB94FF00060C2F8000900220A614B
:103028004FF67F328A6001339DF81C10994210D9FF
:1030380004EB431202F51061D2F800090028E8DB1E
:103048000020C2F80009E9E74FF09040C2F80009F3
:10305800E4E700230AE0BBB14FF09047C2F8007BD9
:10306800002202614FF67F3282600133994210D903
:1030780004EB431202F53060D2F8007B002FEADB44
:103088000027C2F8007BEBE74FF00067C2F8007B2F
:10309800E6E7DCF8103023F48073CCF81030002316
:1030A800A3616FF0804363619DF81E301BB9A3696B
:1030B80043F01003A361A2690A4B1343A3619DF86F
:1030C80022301BB1A36943F00803A361012E04D089
:1030D8002846BDE8F84004B07047A269024B134384
:1030E800A361F5E700383C8004000040D0F8003EBA
:1030F80023F00303C0F8003ED0F8043843F002037D
:10310800C0F8043800207047406900F0010070479B
:1031180038B50546C36823F0C043C360012913D0FE
:1031280019BBC36843F08043C36000240A20FFF73B
:1031380061F80A342846FFF7E7FF08B1C72CF5D92C
:10314800C82C14D0002038BDC36843F00053C360B6
:1031580000240A20FFF74EF80A342846FFF7D4FF68
:103168000128EDD0C72CF4D9EAE70120EBE70120CC
:10317800E9E70000034AD2F8883043F47003C2F844
:103188008830704700ED00E0DFF834D0FFF7F2FF39
:103198000C480D490D4A002302E0D458C4500433AA
:1031A800C4188C42F9D30A4A0A4C002301E0136080
:1031B8000432A242FBD3FDF75FF8FDF7D5FA70475A
:1031C80000000820000000200C0000202432000825
:1031D8004C010020EC070020FEE70000F8B500BF16
:1031E800F8BC08BC9E467047F8B500BFF8BC08BCE0
:0431F8009E46704738
:1031FC0000000000010203040000000000000000B9
:08320C00010203040607080992
:0832140090D1FF7F01000000D2
:04321C006102000843
:043220003902000867
:0C32240001000000100000000024F40075
:10323000000000000000000000000000000000008E
:10324000000000000000000000000000000000007E
:10325000000000000000000000000000000000006E
:10326000000000000000000000000000000000005E
:10327000000000000000000000000000000000004E
:10328000000000000000000000000000000000003E
:10329000000000000000000000000000000000002E
:1032A000000000000000000000000000000000001E
:1032B000000000000000000000000000000000000E
:1032C00000000000000000000000000000000000FE
:1032D00000000000000000000000000000000000EE
:1032E00000000000000000000000000000000000DE
:1032F00000000000000000000000000000000000CE
:1033000000000000000000000000000000000000BD
:1033100000000000000000000000000000000000AD
:10332000000000000000000000000000000000009D
:10333000000000000000000000000000000000008D
:10334000000000000000000000000000000000007D
:10335000000000000000000000000000000000006D
:10336000000000000000000000000000000000005D
:04000005080031912D
:00000001FF
