:020000040800F2
:10000000000008203D560008E1240008E324000811
:10001000E5240008E7240008E924000800000000A7
:10002000000000000000000000000000EB240008B9
:10003000ED24000800000000EF240008F12400086F
:100040008D5600088D5600088D5600088D56000804
:100050008D5600088D5600088D5600088D560008F4
:100060008D5600088D5600088D5600088D560008E4
:100070008D5600088D5600088D5600088D560008D4
:100080008D5600088D5600088D5600088D560008C4
:10009000F92400088D5600088D5600088D5600087A
:1000A0008D5600088D5600088D5600088D560008A4
:1000B0008D5600088D5600088D5600088D56000894
:1000C0008D5600088D5600088D5600088D56000884
:1000D0008D5600088D5600088D5600088D56000874
:1000E0008D5600088D5600088D5600088D56000864
:1000F0008D5600088D5600088D5600088D56000854
:100100008D5600088D5600088D5600088D56000843
:100110008D5600088D5600088D5600088D56000833
:100120008D5600088D5600088D5600088D56000823
:100130008D5600088D5600088D5600088D56000813
:100140008D5600088D5600088D5600088D56000803
:100150008D5600088D5600088D5600088D560008F3
:100160008D5600088D5600088D5600088D560008E3
:100170008D5600088D5600088D56000800000000BE
:100180008D5600088D5600088D5600088D560008C3
:100190008D5600088D5600088D5600088D560008B3
:1001A0008D5600088D5600088D5600088D560008A3
:1001B0008D5600088D5600088D5600088D56000893
:1001C0008D5600088D560008000000008D5600086E
:1001D0008D5600088D5600088D5600088D56000873
:1001E0008D5600088D5600088D5600088D56000863
:0801F0008D5600088D56000831
:100200000348044B834202D0034B03B118477047A5
:100210006800002068000020000000000548064B30
:100220001B1AD90F01EBA301491002D0034B03B1F4
:100230001847704768000020680000200000000098
:1002400010B5064C237843B9FFF7DAFF044B13B11E
:100250000448AFF300800123237010BDA8010020E3
:10026000000000009056000808B5044B1BB104497B
:100270000448AFF30080BDE80840CFE7000000006D
:10028000AC0100209056000870B50F4B0F4DAB42EB
:10029000A3EB050607D0B610002455F8043B013443
:1002A0009847A642F9D805F0F3F9094D094B5E1BB2
:1002B000AB424FEAA60606D0002455F8043B0134B1
:1002C0009847A642F9D870BD0C5700080C57000893
:1002D0000C57000810570008830730B547D0541E4C
:1002E000002A3ED0CAB2034601E0013C39D303F8EC
:1002F000012B9D07F9D1032C2CD9CDB205EB052597
:100300000F2C05EB054535D9A4F1100222F00F0C96
:1003100003F1100EE6444FEA121C1A46C2E90055DA
:10032000C2E9025510327245F8D10CF1010214F005
:100330000C0F03EB021204F00F0C13D0ACF104030A
:1003400023F003030433134442F8045B9342FBD1CC
:100350000CF003042CB1C9B21C4403F8011BA342E6
:10036000FBD130BD64461346002CF4D1F9E70346B7
:100370001446C0E71A46A446E0E700BF014B1868E0
:10038000704700BF000000200EB400B582B003AB80
:10039000816853F8042B019300F060F802B05DF817
:1003A00004EB03B0704700BF0FB400B5074983B03A
:1003B00004AB086853F8042B8168019300F04EF8F1
:1003C00003B05DF804EB04B0704700BF00000020EC
:1003D0009368013B002B936011DA10B49469A34237
:1003E00009DB0A2907D01368581C106019700846E9
:1003F0005DF8044B70475DF8044B00F073B9136867
:10040000581C106019700846704700BF9BB1F8B5C2
:10041000134406460F46541E5D1E01E0AC4208D050
:1004200014F8011F3A463046FFF7D2FF431CF5D1BE
:10043000F8BD0020F8BD0020704700BF936810B5DC
:1004400014461BB918460023636010BD00F09AF9EA
:100450000023A3600023636010BD00BF2DE9F04FAF
:10046000A1B08B4691461C46049018B1036A002B3C
:1004700000F01C81BBF80C30180740F19580DBF8C8
:100480001030002B00F090800023CA460D9343F2F9
:100490002003ADF839309AF80030864E07940127D2
:1004A000002B79D0D14604E019F8013F002B00F071
:1004B0008580252BF8D1B9EB0A0840F0828099F8A5
:1004C0000030002B68D000234FF0FF32CDE9092324
:1004D00009F1010908930B938DF863301E9305E031
:1004E000089A07FA03F31A430892A1464C460522DC
:1004F00014F8011B304600F053FEA246831B00286F
:10050000EED1089BD90644BF20228DF8632099F8CC
:1005100000101A0744BF2B228DF863202A2966D1C8
:10052000079A1168043200290792C0F29A800B9151
:1005300099F801102E2970D05F4C0322204600F05C
:100540002FFE38B1089B001B4022824013430AF162
:10055000010A08931AF8011B58488DF83810062232
:1005600000F01EFE002800F08280554B002B69D061
:1005700007AA0092534B04985A4608A9AFF300808B
:100580000390039B013307D00D9B039A13440D93F3
:100590009AF80030002B85D1BBF80C305B060AD4EA
:1005A0000D9821B0BDE8F08F0498594600F048FE40
:1005B00000283FF469AF4FF0FF30F2E7B9EB0A08CB
:1005C000EAD00AF1FF35CDF81490A946049D01E068
:1005D000A0453ED94C465A4619F8011F2846FFF758
:1005E000F7FE02340130A4EB0A04F1D1D4E7A1F103
:1005F0003002092A88BFCA469CD80B9B00E0013410
:10060000217803EB830302EB4303A1F13002092AB3
:10061000F5D92E290B93A2468ED19AF801102A29DA
:100620002FD1079B9AF802101A6809920433002A06
:100630000AF102000793B8BF4FF0FF338246B8BFFC
:10064000099379E7079B073323F0070308330793E0
:100650009AE70D99DDF81490414499F800300D9116
:100660002FE7494243F002030B91089360E707AA82
:100670000092144B04985A4608A900F0A1FF039079
:100680007FE7A1F130020023092A09930AF1010A48
:100690003FF652AF1AF8011F03EB830302EB43034B
:1006A000A1F13002092AF5D9099345E700F0D4FAFF
:1006B000E0E600BFB0560008B8560008BC56000877
:1006C000000000000D04000810B4054C84461346D9
:1006D00020685DF8044B0A466146FFF7BFBE00BFC5
:1006E00000000020F8B50D461446064610B1036A16
:1006F000002B37D0A389A269A2601A0719D52369F4
:10070000BBB122686169D31AEDB299422F4620DD50
:100710000133A1680139A160511C21601570626923
:100720009A420DD0A389DB0701D50A2D08D038469F
:10073000F8BD2146304600F083FD38B92369E0E773
:100740002146304600F042FB0028F0D04FF0FF3742
:10075000EDE72146304600F039FB0028F6D122684B
:100760000123D6E700F078FAC4E700BF10B4044CC8
:1007700003460A4620685DF8044B1946FFF7B2BFEE
:10078000000000209368002B00F0F8802DE9F04F66
:10079000B1F90CC01CF0080F83B0904681460C469E
:1007A00031D00B697BB31CF00207D8F8006038D059
:1007B0000027D4F828B0216ADFF8C4A23D46554589
:1007C0002B463A4628BF53464846C5B1D84700286D
:1007D00040F3CA80D8F808301B1A07442D1AC8F80D
:1007E0000830002B00F0B68055452B46D4F828B0D1
:1007F000216A28BF53463A464846002DE6D1D6E93D
:1008000000750836DBE72146484600F019FD002850
:1008100040F0AF80B4F90CC0D8F800601CF00207BB
:10082000C6D11CF0010A63D12368A1685746184657
:100830008B46002F58D01CF4007F00F0B580B942E1
:100840000A4600F2E1801CF4906F2FD021696269A2
:100850005D1A02EB420202EBD2726B1C52103B4457
:10086000934292BF93469B461A461CF4806F00F059
:10087000EA801146484600F00FFB002800F0F9809E
:100880002A462169009000F03DFDA289009B22F4D8
:10089000906242F08002A2815819ABEB0505C4F8C2
:1008A00014B02361A5602060BB463A4651460092D1
:1008B00000F0D0FBA1682368009AA1EB0B011A4459
:1008C0003D46A16022600027D8F808305B1BAA448F
:1008D000C8F80830002B3DD02368A168B4F90CC0DB
:1008E00018468B46002FA6D1D6E900A708369EE70A
:1008F0003846BB463D460097002D41D0002846D0E3
:10090000009A2068A168D4E90473AA4228BF2A4645
:10091000B84204D901EB030A524500F385809342A3
:1009200075DC216AA76A5A464846B847B0F1000A02
:100930001ADD009BB3EB0A0300930FD00120D8F817
:100940000830A3EB0A03D344A5EB0A05C8F8083026
:10095000002BD1D1002003B0BDE8F08F21464846DE
:1009600000F034FA0028EAD0B4F90C3043F0400328
:10097000A3814FF0FF3003B0BDE8F08F0020704737
:10098000756833460836002DFAD0D3F800B02A46F1
:100990000A21584600F004FC002867D00130A0EB83
:1009A0000B0300931A46ACE722699A4214D362699A
:1009B000BA4211D86FF00043BB4228BF3B46A56A3C
:1009C00093FBF2F3216A02FB03F348465246A84721
:1009D000051EC9DD7F1B77E7B94228BF39460D46A2
:1009E00018460A46514600F035FBA1682368491BAA
:1009F0002B44A16023600029ECD12146484600F039
:100A0000E5F90028E6D0AFE7BB463A464EE759463F
:100A1000019200F01FFB019AA3689B1AA360236850
:100A200013442360924684E75946524600F012FB75
:100A30002368534423602146484600F0C7F9002844
:100A40003FF477AF90E7484600F0F6FC03460028F5
:100A50007FF422AF2169484600F09EFAB4F90C30C9
:100A60000C22C9F8002023F080037FE76A1C009263
:100A700047E70C22B4F90C30C9F8002076E700BF34
:100A800000FCFF7F00207047024A0349034800F042
:100A900061BB00BF50000020CD0D00080400002005
:100AA0000C4B4168994210B5044601D000F08EF914
:100AB000A168094B994202D0204600F087F9E1680D
:100AC000064B994204D02046BDE8104000F07EB9A4
:100AD00010BD00BFC40100202C02002094020020A1
:100AE000002070472DE9F8432A4C2B49DFF8BC90D1
:100AF000DFF8BC80294FC4F83811002504230822F0
:100B0000294604F15C00264EE360C4E90055C4E9BF
:100B10000455A5606566A561FFF7DEFB214B6367A1
:100B20000822294604F1C400C4E90849C4E90A8737
:100B3000C4E91A55C4E91E552567C4F8CC50C4F859
:100B400080502663FFF7C8FB174BC4F8DC302946FA
:100B500004F16803082204F59670C4F88830C4E9EB
:100B60002398C4E92576C4E93455C4E93855C4F856
:100B7000D850C4F83451C4F8E850FFF7ADFB04F185
:100B8000D003C4E93D98C4E93F76C4F8F030BDE82D
:100B9000F88300BFC4010020890A0008111A000868
:100BA000351A00080900010012000200A919000806
:100BB000D1190008F8B5254BD3F838310646002B7B
:100BC0003CD0234FD7E90134013B04D51DE05A1C2A
:100BD00004F1680419D0B4F90C50013B002DF6D192
:100BE0001C4BE360C4E90155C4E904556566256002
:100BF000A5610822294604F15C00FFF76DFBC4E9FA
:100C00000D55C4E912552046F8BD3D680DB12F467B
:100C1000D8E74FF4D671304600F03EF9044680B173
:100C20000423C0E900530C302946A0604FF4D07271
:100C30002546FFF751FB3C602F46C3E7FFF752FF05
:100C4000BFE70C2338603360DDE700BFC40100203C
:100C5000500000200100FFFF036A03B17047044BFE
:100C6000044AD3F838310262002BF7D13AE700BFCB
:100C7000C4010020A10A0008704700BF704700BFF0
:100C8000024A0349002000F065BA00BF500000206E
:100C9000850A0008024A0349002000F05BBA00BF41
:100CA00050000020E10A0008B1F90C302DE9F041B4
:100CB0001E070C4680463DD44A68002A56DDE56A88
:100CC000002D34D00022D8F80060C8F8002013F4BA
:100CD0008052216A57D101234046A847451C02464D
:100CE00066D0B4F90C30E56A216A580705D5636807
:100CF000D21A636B0BB1236CD21A00234046A8476B
:100D0000431C42D00023636023692360A389DF046E
:100D100000D56065616BC8F8006041B104F144031F
:100D2000994202D0404600F037F900236363002067
:100D3000BDE8F0810E69002EF9D09B070D6808BF51
:100D40004B690E6018BF0023AD1B8B600BE02B4678
:100D50003246216AA76A4046B847B0F1000CA5EBBD
:100D60000C05664406DD002DF1DCE0E70A6C002A84
:100D7000A5DCDCE7B4F90C3043F04003A3814FF06D
:100D8000FF30BDE8F081626DAFE7D8F80010B4F92C
:100D90000C301D29F0D80C4ACA40D507ECD5226981
:100DA000226000226260DA04B4D50029B1D0B1E734
:100DB000D8F80030002B94D01D2B01D0162BD9D1A0
:100DC000C8F80060B3E700BF010040200B69B3B171
:100DD00010B5044682B008B1036A5BB1B1F90C30BA
:100DE00013B9002002B010BD204602B0BDE810408B
:100DF000FFF75ABF0191FFF72FFF0199EEE700209F
:100E0000704700BFB8B138B50D4A0369156804468C
:100E10002BB10DB12B6A53B1B4F90C300BB90020D2
:100E200038BD21462846BDE83840FFF73DBF28467B
:100E3000FFF712FFF0E7034A0349044800F08AB9BC
:100E40000000002050000020CD0D0008040000200C
:100E500070B5104E336805460C46B3B1214628469E
:100E600000F090FD431C0CD0C41C24F00304A042ED
:100E700005D0211A284600F085FD013001D020461A
:100E800070BD4FF0FF34204670BD194600F07AFD6A
:100E90003060E3E7000300202DE9F843CD1C25F086
:100EA000030508350C2D38BF0C25002D064618DB30
:100EB000A94216D8DFF8DC8000F0C4FCD8F8042082
:100EC000A2B1144603E0636822467BB11C46236846
:100ED0005B1BF8D40B2B1FD89442636854D053602B
:100EE0000CE00C2333600020BDE8F883294630462F
:100EF000FFF7AEFF431C044619D00560304600F0F2
:100F0000A3FC04F10B00231D20F00700C21A1CBF34
:100F10001B1AA350BDE8F88361199442256014BFE1
:100F20005160C8F80410635163684B60E6E7D8F875
:100F300004701FB33C467F68002FFBD123683946FD
:100F4000304604EB030900F01DFD814516D12368EE
:100F5000ED1A29463046FFF77BFF01300ED023689B
:100F6000D8F804202B442360536883B1A34203D0F4
:100F70001A465B689C42FBD10023B0E70C23336028
:100F8000304600F061FCAEE7C8F80430B6E7C8F8B8
:100F90000470B3E700030020002950D038B551F8A1
:100FA000043C0C1F002BB8BFE418054600F04AFCB7
:100FB000274A13682BB1A3420CD9216860188342D9
:100FC0002CD0636028461460BDE8384000F03CBC7B
:100FD000A3420FD81A465B68002BF9D1116850184C
:100FE000844217D02CD3636054602846BDE8384053
:100FF00000F02ABC11685018A04214D020D82168F3
:1010000060188342EFD118685B680844C4E90003A4
:101010005460EAE723680B441360E6E718685B68EE
:1010200008442060CDE720680144501883421160D5
:10103000DBD1D3E900040144C2E90014D5E77047CD
:101040000C232B602846BDE8384000F0FDBB00BFF4
:101050000403002088420ED98B1883420BD900EB81
:10106000020C002A6ED0624613F801CD02F801CDC1
:101070009942F9D170470F2A0FD8034602F1FF3C7D
:10108000002A5FD00CF1010C013B8C4411F8012BBC
:1010900003F8012F6145F9D1704740EA01039B072E
:1010A00051D1A2F1100370B501F1200C23F00F050E
:1010B00001F1100E00F11004AC441B095EF8105C45
:1010C00044F8105C5EF80C5C44F80C5C5EF8085C5C
:1010D00044F8085C5EF8045C44F8045C0EF1100E01
:1010E000E64504F11004E9D1013312F00C0F01EBD5
:1010F000031102F00F0400EB031328D0043C24F08A
:1011000003064FEA940C1E441C1F8E465EF8045BD7
:1011100044F8045FB442F9D10CF1010402F0030277
:1011200003EB840301EB840102F1FF3C4AB10CF1B3
:10113000010C013B8C4411F8012B03F8012F614590
:10114000F9D170BD704702F1FF3C03469AE7224691
:10115000EAE700BF2DE9F8430746884616464FF0F8
:101160000009D6E90154013D10D4A389012B08D907
:10117000B4F90E3001332146384602D0C04749EA5F
:101180000009013D6B1C04F16804EED13668002EA5
:10119000E7D14846BDE8F8830000000000000000E9
:1011A00001F0FF01102A2BDB10F0070F08D010F818
:1011B000013B013A8B422DD010F0070F42B3F6D11C
:1011C000F0B441EA012141EA014122F007047FF035
:1011D00000070023F0E80256083C85EA010586EA8C
:1011E000010685FA47F5A3FA87F586FA47F6A5FAC8
:1011F00087F68EB9EED1F0BC01F0FF0102F00702D4
:1012000032B110F8013B013A83EA010313B1F8D17E
:101210000020704701387047002D06BF354603385F
:10122000073815F0010F07D1013015F4807F02BF98
:10123000013015F4C03F0130F0BC0138704700BFE9
:1012400038B52F4B1B6805460C4613B11A6A002AA5
:101250004BD0B4F90C3018071CD5226922B313F017
:10126000010107D0616900204942A060A1613AB143
:10127000002038BD980758BF6169A160002AF7D1E6
:10128000190658BF1046F4D543F04003A3814FF030
:10129000FF3038BDD9062CD55A0712D4226943F045
:1012A0000803A381002ADAD103F42071B1F5007F8D
:1012B000D5D02146284600F0C9FAB4F90C3022698D
:1012C000CDE7616B51B104F14402914204D028464C
:1012D000FFF762FEB4F90C3000226263226900213C
:1012E000C4E9002123F02403D9E71846FFF7B4FC32
:1012F000AFE7092243F040032A60A381C7E700BF9C
:1013000000000020844641EA000313F003036DD17E
:10131000403A41D351F8043B40F8043B51F8043BB8
:1013200040F8043B51F8043B40F8043B51F8043BBF
:1013300040F8043B51F8043B40F8043B51F8043BAF
:1013400040F8043B51F8043B40F8043B51F8043B9F
:1013500040F8043B51F8043B40F8043B51F8043B8F
:1013600040F8043B51F8043B40F8043B51F8043B7F
:1013700040F8043B51F8043B40F8043B51F8043B6F
:1013800040F8043B51F8043B40F8043B51F8043B5F
:1013900040F8043B403ABDD2303211D351F8043BFF
:1013A00040F8043B51F8043B40F8043B51F8043B3F
:1013B00040F8043B51F8043B40F8043B103AEDD2AE
:1013C0000C3205D351F8043B40F8043B043AF9D2FF
:1013D000043208D0D2071CBF11F8013B00F8013BD2
:1013E00001D30B8803806046704700BF082A13D3DF
:1013F0008B078DD010F003038AD0C3F10403D21AF7
:10140000DB071CBF11F8013B00F8013B80D331F82A
:10141000023B20F8023B7BE7043AD9D3013A11F8AA
:10142000013B00F8013BF9D20B7803704B78437015
:101430008B788370604670472DE9F041144641B3C4
:101440000AB306460D4600F0F9FA8442074602D870
:10145000B4EB500F13D821463046FFF71DFD8046F0
:1014600050B1BC422246294628BF3A46FFF74AFF00
:1014700029463046FFF790FD4046BDE8F081A8467A
:101480004046BDE8F081A046FFF786FD4046BDE836
:10149000F081BDE8F0411146FFF7FEBC2DE9F84FA1
:1014A00092461F460A698B68DDF828909A42B8BFB9
:1014B0001A46CAF8002091F843300C46064613B18C
:1014C0000132CAF80020226891065FD5DAF80030B0
:1014D0000233CAF80030226812F0060F11461DD1FF
:1014E000E1689942D8BF114618DD4FF0000804F1B9
:1014F000190B05E0E568DAF80030ED1A45450CDD1A
:1015000001235A4639463046C847013008F10108E0
:10151000F0D14FF0FF30BDE8F88F216894F84330E8
:10152000003B18BF01238A060AD5E1185A1C302057
:1015300081F84300224494F8451082F843100233A6
:1015400004F1430239463046C8470130E1D02368F0
:10155000DAF80050216903F00603042BD4E90220D5
:101560001BD08A4220DD4FF00008521A90441A34F2
:10157000002501E0454517DA012322463946304669
:10158000C847013005F10105F4D1C2E712F0060F9A
:101590000DD0003B18BF0123D2E7401B8A4220EA4E
:1015A000E078E2DC0028E2DC0020BDE8F88FE168AA
:1015B000DAF800309942D8BF114696DCAEE700BF9A
:1015C0002DE9F047174684B00A7E0C9D0C4606466E
:1015D000984601F1430C002A35D0A2F15803D9B244
:1015E000202969D8202B67D8DFE813F0E6006600D1
:1015F00066006600660066006600660066006600BB
:101600006600AC0070006600660066006600700050
:10161000660066006600660021008300C600660062
:101620006600B6006600830066006600EC002B686A
:1016300022686169181D286010061B6802D45206D2
:1016400000F1E08019600023E1462361CDF80080BD
:101650003B4603AA21463046FFF720FF013020D049
:1016600023694A4639463046C047013019D02368BD
:10167000E068DDF80C909B0718D5484516DD00257D
:1016800004F1190A04E0E068A0EB0903AB420DDDA8
:101690000123524639463046C047013005F1010565
:1016A000F1D14FF0FF3004B0BDE8F0874845B8BF36
:1016B000484604B0BDE8F08784F84220012004F1D8
:1016C00042090023206184F84330BFE72A68236879
:1016D000111D1806296002D4590600F19580106882
:1016E000014600286268C0F2938054484FF00A0E09
:1016F00015E020682B6810F0800F53F8041B02D10E
:10170000400648BF89B26F2A4C482B6014BF4FF087
:101710000A0E4FF0080E0023626884F84330002A56
:10172000A26051DB236823F00403236000294BD11E
:10173000002A7BD1E146BEF1080F56D0ACEB09037D
:10174000236183E72B681A6804332B6004F1420994
:1017500084F842200120B4E72B686268191D2960D3
:10176000D3F8009000214846FFF71AFD002863D007
:10177000A0EB09006060A4E7236843F02003236026
:1017800078222F4884F845202A6813F0800F52F8F9
:10179000041B03D113F0400F18BF89B22A60DA0787
:1017A00044BF43F02003236019B9236823F02003CA
:1017B00023604FF0100EAEE7582384F845301F48E1
:1017C0002368E1E72368DBE77546E146B1FBF5F303
:1017D00005FB131A0A46AA4210F80A1009F8011D5F
:1017E0001946F3D2BEF1080FA8D12368DD07A5D5AD
:1017F000626823699A42A1DC302309F8013C09F1AF
:10180000FF399BE719801EE7B2F90010084668E728
:101810002D20002AA26084F8430002DB23F0040399
:1018200023600A2505484942AE46CEE7037884F88E
:10183000423004F142097EE7606842E7C45600087E
:10184000D8560008704700BF704700BF70B5B1F9A7
:101850000C300C46990796B007D504F147030122D6
:10186000C4E90432236016B070BDB4F90E1000292B
:10187000054629DB6A4600F011F9002822DB4FF407
:1018800080612846019EFFF707FB88B3A38920608B
:1018900043F0800306F47046A381B6F5005F4FF471
:1018A0008063C4E90403DED1B4F90E10284600F0C9
:1018B00057F80028D7D0A38923F0030343F001038E
:1018C000A381D0E7B4F90C3013F0800F14BF402689
:1018D0004FF4806631462846FFF7DEFA40B1A3890F
:1018E000206043F08003C4E90406A38116B070BDF4
:1018F000B4F90C309A05B6D423F0030304F147027F
:1019000043F002030121C4E90421A3812260AAE774
:1019100070B50C46B1F90E10002996B015461E465A
:101920000FDB6A4600F0BAF800280ADB019B03F4DB
:101930007043A3F50053B3FA83F34FF480625B095D
:1019400008E0A28912F0800F4FF0000314BF40227C
:101950004FF48062002033602A6016B070BD00BF73
:1019600038B5074D0022044608462A6003F0A8F95E
:10197000431C00D038BD2B68002BFBD0236038BD42
:101980000803002038B5074D0022044608462A60A7
:1019900003F04CF9431C00D038BD2B68002BFBD062
:1019A000236038BD0803002010B50C46B1F90E10B5
:1019B00000F05EF8002803DB636D0344636510BD2F
:1019C000A38923F48053A38110BD00BF002070477A
:1019D0002DE9F0410C46B1F90C101F46CB05054628
:1019E00016460BD421F48051A1813B46B4F90E1068
:1019F00032462846BDE8F04100F07CB8B4F90E103C
:101A00000223002200F060F8B4F90C10EAE700BFEE
:101A100010B50C46B1F90E1000F056F8B4F90C30C0
:101A2000421C0EBF23F4805343F480536065A381AE
:101A300010BD00BFB1F90E1000F008B851F8043C19
:101A4000181F002BBCBF0B58C018704738B5074D86
:101A50000022044608462A6003F02AF9431C00D0FD
:101A600038BD2B68002BFBD0236038BD0803002055
:101A700038B50C46084D8446114620461A460023C8
:101A80002B60644603F0F6F8431C00D038BD2B6889
:101A9000002BFBD0236038BD0803002070B50C4636
:101AA000084D03460026204611461C462E6003F0D2
:101AB00002F9431C00D070BD2B68002BFBD02360C3
:101AC00070BD00BF0803002038B50C46084D8446A1
:101AD000114620461A4600232B60644603F0F2F8B4
:101AE000431C00D038BD2B68002BFBD0236038BDD1
:101AF0000803002038B50C46084D844611462046A0
:101B00001A4600232B60644603F0C4F8431C00D03F
:101B100038BD2B68002BFBD0236038BD08030020A4
:101B200053B94AB9002908BF00281CBF4FF0FF3144
:101B30004FF0FF3000F06AB9ADF1080C6DE904CE4A
:101B400000F006F8DDF804E0DDE9022304B0704798
:101B50002DE9F047089D0E4604460F46002B4AD15A
:101B600094468C45B2FA82F260D942B1C2F12003A8
:101B7000974020FA03F30CFA02FC1F4394404FEA0B
:101B80001C4E1FFA8CF6B7FBFEF1230C0EFB1177EF
:101B900043EA074301FB06F098420AD91CEB030312
:101BA00001F1FF3780F01581984240F2128102392D
:101BB00063441B1AA4B2B3FBFEF00EFB103344EADD
:101BC000034400FB06F6A6420AD91CEB040400F10C
:101BD000FF3380F00081A64240F2FD806444023869
:101BE00040EA0140A41B00211DB1D4400023C5E9F7
:101BF0000043BDE8F0878B4205D90DB1C5E900016E
:101C000000210846F5E7B3FA83F1002946D1B34233
:101C100002D3824200F2F580841A66EB03020120AF
:101C20001746002DE5D0C5E90047E2E7002A40F05D
:101C30009380A1EB0C034FEA1C471FFA8CFE012195
:101C4000B3FBF7F607FB1630230C43EA00430EFB09
:101C500006F0984208D91CEB030306F1FF3802D2C4
:101C6000984200F2D08046461B1AA4B2B3FBF7F0AC
:101C700007FB103344EA03440EFB00FEA64508D9D7
:101C80001CEB040400F1FF3302D2A64500F2B6803B
:101C90001846A4EB0E0440EA0640A5E7C1F1200770
:101CA0008B4022FA07FC4CEA030C06FA01FE20FAEC
:101CB00007F426FA07F344EA0E0400FA01F84FEAA3
:101CC0001C404FEA1449B3FBF0FE1FFA8CF600FBF0
:101CD0001E3349EA03430EFB06F9994502FA01F265
:101CE0000BD91CEB03030EF1FF3A80F08580994578
:101CF00040F28280AEF1020E6344A3EB0909A4B264
:101D0000B9FBF0F300FB139944EA094403FB06F620
:101D1000A64208D91CEB040403F1FF3068D2A642A6
:101D200066D9023B644443EA0E40A41BA0FB02E6D2
:101D3000B4427346B14652D34FD05DB1B8EB030203
:101D400064EB090404FA07F722FA01F31F43CC40BD
:101D5000C5E9007400214CE7C2F1200120FA01F32B
:101D60000CFA02FC26FA01F1964033434FEA1C4775
:101D70001FFA8CFEB1FBF7F007FB1016190C41EAB5
:101D8000064100FB0EF68E4204FA02F408D91CEB61
:101D9000010100F1FF382DD28E422BD90238614467
:101DA000891B9BB2B1FBF7F607FB161143EA01430F
:101DB00006FB0EF1994208D91CEB030306F1FF382C
:101DC00014D2994212D9023E63445B1A46EA00419A
:101DD00036E73946EDE6184602E7F045ADD2BEEBF0
:101DE000020366EB0C060138B146A6E74646ECE76F
:101DF000034698E74046D3E7D6467EE76444023878
:101E000047E708460DE7023E63442DE7704700BFF1
:101E100010B584B00024009401940294039401F05E
:101E20004BFE01238DF800308DF8014001941F22F4
:101E30008DF8082087228DF809208DF80A408DF84A
:101E40000B408DF80C308DF80D308DF80E408DF86C
:101E50000F40684601F04EFE042001F03BFE04B046
:101E600010BD000000B583B001904FF0FF33012298
:101E700001A9034802F06EFB019803B05DF804FB72
:101E80002404002072B6FEE700B595B0342200218C
:101E900007A8FEF721FA0023029303930493059306
:101EA000069301F04DFD234B1A6C42F080521A64E8
:101EB0001B6C03F080530093009B1F4A136823F4AC
:101EC000404343F480431360136803F44043019399
:101ED000019B012307934FF48033089302230D9352
:101EE0004FF480020E9204220F9260211091119300
:101EF0001292139307A800F0AFFDA0B901F028FDDE
:101F000098B90F23029302230393002304934FF401
:101F1000805205920693032102A801F02DF830B9F2
:101F200015B05DF804FBFFF7ADFFFFF7ABFFFFF760
:101F3000A9FF00BF003802400070004008B5FFF75D
:101F400067FF01F029FEFFF79FFF00F00BF800F09C
:101F500033F900F0EFF900F04FFA00F0A9F802F0C1
:101F6000F3FEFEE72DE9F0438FB0002409940A94B4
:101F70000B940C940D94494B1A6B42F004021A63B3
:101F80001A6B02F004020192019A1A6B42F080026D
:101F90001A631A6B02F080020292029A1A6B42F0E4
:101FA00001021A631A6B02F001020392039A1A6B80
:101FB00042F002021A631A6B02F002020492049ABF
:101FC0001A6B42F020021A631A6B02F0200205928B
:101FD000059A1A6B42F010021A631A6B02F0100293
:101FE0000692069A1A6B42F008021A631A6B02F004
:101FF00008020792079A1A6B42F040021A631B6BA1
:1020000003F040030893089BDFF8A090224644F2B7
:102010008101484601F08EFC214F22464FF40051C9
:10202000384601F087FC1F4D22464021284601F02A
:1020300081FC4FF40058CDF824804FF488130A93A4
:102040000B9409A9184801F073FB44F2810309932A
:1020500001260A960B940C9409A9484601F068FBE6
:10206000CDF824800A960B940C9409A9384601F007
:102070005FFB402309930A960B940C9409A9284608
:1020800001F056FB802309930A940B9409A9284672
:1020900001F04EFB0FB0BDE8F08300BF00380240F6
:1020A00000140240001802400008024000040240F0
:1020B00008B50D480D4B0360102343600023836077
:1020C000C3604FF4A02202614FF4800242610376A4
:1020D00043768376C3760377437700F02DFA00B911
:1020E00008BDFFF7CFFEFBE70C03002000640040B3
:1020F00000B589B0002303930493059306930793D7
:102100000268174B9A4202D009B05DF804FB03F550
:10211000EA331A6C42F000721A641A6C02F0007210
:102120000192019A1A6B42F008021A631B6B03F0CA
:1021300008030293029B0323039302220492069353
:102140000923079303A9074801F0F2FA0022114678
:10215000142001F07FFC142001F08CFCD4E700BFB8
:1021600000640040000C024010B58AB000210191CB
:10217000029101AB03AA00F085FA20B9049BAA2BB7
:1021800013D00AB010BDFFF77DFEF7E704F1280376
:102190006B4413F8241C0648FEF706F90134072C9B
:1021A000F4DD0448FEF700F9EBE70024F7E700BF91
:1021B000A8560008AC56000810B51548154B03602A
:1021C000154B00221A7080215970E1219970DA7044
:1021D0001A715A7143604FF4000383600F4BC36060
:1021E0000F4B036140F2F453436101F0C9FE58B94B
:1021F0000C4C382200212046FEF76EF82123236084
:102200004FF44003636110BDFFF73CFEF0E700BFF1
:102210003C030020008002403403002068000020BE
:1022200008010020EC03002070B58CB00023079358
:10223000089309930A930B930268394B9A4201D091
:102240000CB070BDA3F590431A6B42F000721A6394
:102250001A6B02F000720092009A1A6B42F08062D0
:102260001A631A6B02F080620192019A1A6B42F0B3
:1022700000621A631A6B02F000620292029A1A6BF1
:1022800042F004021A631A6B02F004020392039AEA
:102290001A6B42F001021A631A6B02F001020492F7
:1022A000049A1A6B42F002021A631A6B02F00202DD
:1022B0000592059A1A6B42F040021A631B6B03F0F9
:1022C00040030693069B32230793022408940A9442
:1022D0000B250B9507A9134801F02AFA86230793CB
:1022E0000894002609960A940B9507A90E4801F058
:1022F0001FFA4FF400530793089409960A940B951C
:1023000007A90A4801F014FA4FF4205307930894E0
:1023100009960A940B9507A9054801F009FA8FE779
:102320000080024000080240000002400004024019
:102330000018024008B50B480B4B03604FF4E13323
:10234000436000238360C36003610C2242618361A8
:10235000C3610362436202F0C3F900B908BDFFF72D
:1023600091FDFBE7240400200048004010B5ACB00C
:10237000044600212791289129912A912B9190229E
:1023800003A8FDF7A9FF2268184B9A4201D02CB090
:1023900010BD4FF48073039303A800F0C9FE10BB77
:1023A000134B1A6C42F480221A641A6C02F48022D5
:1023B0000192019A1A6B42F008021A631B6B03F038
:1023C00008030293029B4FF4407327930223289340
:1023D0000023299303232A9307232B9327A9054836
:1023E00001F0A6F9D3E7FFF74DFDD9E7004800401B
:1023F00000380240000C024008B50C484FF0A043E2
:102400000360062303710222C271002383714272AA
:1024100001228272C37203738273C37302F091F953
:1024200000B908BDFFF72EFDFBE700BFAC0400209C
:1024300070B5ACB0044600212791289129912A91CA
:102440002B91902203A8FDF747FF2368B3F1A04F1B
:1024500001D02CB070BD4FF40013039303A800F01B
:1024600067FE002835D11C4C236B43F00103236326
:10247000236B03F001030093009B4FF4E853279371
:10248000022328930025299503232A930A232B93BB
:10249000124E27A9304601F04BF94FF400732793F1
:1024A0002895299527A9304601F042F9636B43F03E
:1024B00080036363636B03F080030193019B636C90
:1024C00043F480436364636C03F480430293029B90
:1024D000BFE7FFF7D7FCC6E7003802400000024024
:1024E000FEE7FEE7FEE7FEE7FEE77047704770474E
:1024F00008B501F05DFB08BD08B5024800F083F99E
:1025000008BD00BF0C03002082B00A4B1A6C42F0D9
:1025100080521A641A6C02F080520092009A5A6C2F
:1025200042F480425A645B6C03F480430193019B44
:1025300002B0704700380240002800F0A18038B592
:10254000044690F82030D3B12268136843F00103A9
:10255000136001F039FB054623685A6812F0010F39
:1025600010D101F031FB401B0A28F5D9636A43F40E
:1025700000336362052384F82030012038BDFFF763
:10258000B7FDE1E71A6822F002021A6001F01CFBB5
:10259000054623685A6812F0020F0DD001F014FBB3
:1025A000401B0A28F5D9636A43F4003363620523AC
:1025B00084F820300120E1E7227E012A3DD01A680C
:1025C00022F080021A60637E012B3BD022681368E0
:1025D00023F040031360A37E012B39D022681368D7
:1025E00023F020031360E37E012B37D022681368A9
:1025F00043F010031360237F012B35D0226813684A
:1026000023F008031360637F012B33D02268136823
:1026100023F004031360A368E268134322691343A1
:10262000626913436268013A21681343CB61002059
:102630006062012384F82030A0E71A6842F080022B
:102640001A60C0E72268136843F040031360C2E7D2
:102650002268136843F020031360C4E722681368FC
:1026600023F010031360C6E72268136843F00803E1
:102670001360C8E72268136843F004031360CAE7D5
:102680000120704790F820C00CF1FF3C5FFA8CFCF1
:10269000BCF1010F00F2A58030B451B90468E468C0
:1026A00014F0030F10D1436A43F400134362012076
:1026B0007EE00468246914F0030F05D1436A43F4F3
:1026C00000134362012073E0056801F11B0424013B
:1026D0002C5904F004049460002C6BD1056801F1BE
:1026E0001B0424012C59640D1460046801F11B0CB7
:1026F0004FEA0C1C54F80C4004F00204D460046847
:10270000A444DCF8045015F0080F5BD008241461D1
:10271000046801F11B0C04EB0C146468C4F3072477
:102720009461046804EB0C146468240C546102681E
:1027300002EB0112D2F8B8211A70026802EB011202
:10274000D2F8B821C2F307225A70026802EB0112D4
:10275000D2F8B821C2F307429A70026802EB011264
:10276000D2F8B821120EDA70026802EB0112D2F828
:10277000BC211A71026802EB0112D2F8BC21C2F32B
:1027800007225A71026802EB0112D2F8BC21C2F38F
:1027900007429A71026802EB0112D2F8BC21120EB4
:1027A000DA71C1B90268D36843F02003D360002016
:1027B00030BC7047056801F11B0424012C59E40862
:1027C000546092E701F11B0504EB0514646804F002
:1027D0000F0414619CE70268136943F0200313613E
:1027E000E5E7436A43F48023436201207047704762
:1027F0007047704770477047704770477047704721
:102800007047704770472DE9F84F054603685C69CB
:10281000D3F804809F68D3F80CA0D3F81090D3F8B5
:1028200018B014F001063BD017F0010616D00122B3
:102830009A6017F0020F08D117F0040F0CD117F0AF
:10284000080606D04FF4805608E0FFF7D0FF0026B8
:1028500004E0FFF7CFFF01E04FF4006617F4807F3C
:102860000DD02B684FF480729A6017F4007F40F00F
:10287000968017F4806F00F0968046F4005617F4A7
:10288000803F0DD02B684FF480329A6017F4003FE0
:1028900040F0938017F4802F00F0938046F40046B8
:1028A00014F0080F07D01AF0100F04D046F4007689
:1028B0002B681022DA6014F0040F03D01AF0080F0E
:1028C00040F0898014F0020F05D02B68DB6813F00C
:1028D000030F40F0878014F0400F07D019F0100F5D
:1028E00004D046F480662B6810221A6114F0200F81
:1028F00002D019F0080F79D114F0100F04D02B6812
:102900001B6913F0030F78D114F4003F02D018F0C4
:10291000100F76D114F4803F02D018F0080F77D151
:1029200014F4004F37D018F0040F31D014F4807F26
:1029300004D01BF0010F01D046F0010614F4007F13
:1029400004D01BF0020F01D046F0020614F4806F91
:1029500004D01BF0040F01D046F0040614F4006FFD
:1029600016D01BF0700B13D0BBF1400F66D056D8B9
:10297000BBF1200F5CD0BBF1300F5CD0BBF1100F6E
:1029800001D146F008062A68936923F07003936129
:102990002B6804225A60002E56D1BDE8F88F2846D5
:1029A000FFF726FF6BE717F4006F02D046F480466E
:1029B00065E72846FFF71FFF61E72846FFF719FF85
:1029C0006EE717F4002F02D046F4803668E72846F9
:1029D000FFF712FF64E72B680822DA602846FFF74A
:1029E0000CFF6FE72846FFF7BFFB74E72B68082250
:1029F0001A612846FFF703FF7EE72846FFF7FEFE31
:102A000082E72B6810225A602846FFF7F9FE81E71B
:102A10002B6808225A602846FFF7F3FE80E7BBF1D7
:102A2000500F0ED0BBF1600FADD146F48076AAE70F
:102A300046F01006A7E746F02006A4E746F0400659
:102A4000A1E746F080069EE76B6A33436B62284637
:102A5000FFF7D8FEA1E70000002800F0068270B55D
:102A600082B00446036813F0010F29D0954B9B6890
:102A700003F00C03042B1AD0924B9B6803F00C0359
:102A8000082B0FD06368B3F5803F40D0002B54D1A2
:102A90008C4B1A6822F480321A601A6822F4802261
:102AA0001A6039E0874B5B6813F4800FEAD0854BDE
:102AB0001B6813F4003F03D06368002B00F0D7813C
:102AC000236813F0020F74D07E4B9B6813F00C0F39
:102AD0005ED07C4B9B6803F00C03082B53D0E3685B
:102AE000002B00F08980774A136843F001031360DC
:102AF00001F06AF80546734B1B6813F0020F72D1A0
:102B000001F062F8401B0228F5D90320B4E16D4AB8
:102B1000136843F48033136063682BB301F054F8F7
:102B20000546684B1B6813F4003FC9D101F04CF80F
:102B3000401B6428F5D903209EE1B3F5A02F09D0EE
:102B4000604B1A6822F480321A601A6822F48022DC
:102B50001A60E1E75B4B1A6842F480221A601A6837
:102B600042F480321A60D7E701F02EF80546554B43
:102B70001B6813F4003FA3D001F026F8401B642823
:102B8000F5D9032078E14F4B5B6813F4800FA6D191
:102B90004C4B1B6813F0020F03D0E368012B40F08D
:102BA0006881484A136823F0F803216943EAC103A6
:102BB0001360236813F0080F46D0636983B3414A5A
:102BC000536F43F00103536700F0FEFF05463D4B92
:102BD0005B6F13F0020F37D100F0F6FF401B0228A5
:102BE000F5D9032048E1374A136823F0F803216937
:102BF00043EAC1031360DCE7324A136823F00103A0
:102C0000136000F0E1FF05462E4B1B6813F0020F26
:102C1000CFD000F0D9FF401B0228F5D903202BE1CB
:102C2000284A536F23F00103536700F0CDFF054698
:102C3000244B5B6F13F0020F06D000F0C5FF401B62
:102C40000228F5D9032017E1236813F0040F7DD083
:102C50001C4B1B6C13F0805F1ED11A4B1A6C42F098
:102C600080521A641B6C03F080530193019B012571
:102C7000154B1B6813F4807F10D0A368012B25D05F
:102C8000002B3BD10F4B1A6F22F001021A671A6F0B
:102C900022F004021A671EE00025E9E70A4A1368D9
:102CA00043F48073136000F08FFF0646064B1B68E9
:102CB00013F4807FE1D100F087FF801B6428F5D9F1
:102CC0000320D9E00038024000700040724A136FC0
:102CD00043F001031367A36833B300F075FF0646A2
:102CE0006D4B1B6F13F0020F2FD100F06DFF801B97
:102CF00041F288339842F3D90320BDE0052B09D077
:102D0000654B1A6F22F001021A671A6F22F0040253
:102D10001A67E0E7604B1A6F42F004021A671A6FF5
:102D200042F001021A67D6E700F04EFF06465A4B02
:102D30001B6F13F0020F08D000F046FF801B41F21A
:102D400088339842F3D9032096E0FDB9A369002B9C
:102D500000F09180504A926802F00C02082A59D083
:102D6000022B19D04C4A136823F08073136000F0D3
:102D70002BFF0446484B1B6813F0007F48D000F03F
:102D800023FF001B0228F5D9032075E0424A136C8B
:102D900023F080531364D9E73F4A136823F080730C
:102DA000136000F011FF05463B4B1B6813F0007FDA
:102DB00006D000F009FF401B0228F5D903205BE094
:102DC000E369226A1343626A43EA8213A26A5208E1
:102DD000013A43EA0243E26A43EA0263226B43EAAE
:102DE00002732D4A5360136843F08073136000F040
:102DF000EBFE0446284B1B6813F0007F06D100F061
:102E0000E3FE001B0228F5D9032035E0002033E063
:102E1000002031E0204A5268012B2FD002F48003B9
:102E2000E1698B422CD102F03F03216A8B4229D108
:102E3000616A47F6C0731340B3EB811F24D102F4DB
:102E40004031A36A5B08013BB1EB034F1ED102F096
:102E50007063E16AB3EB016F1AD102F0E042236BB9
:102E6000B2EB037F16D1002006E00120704701205D
:102E700002E0012000E0002002B070BD0120FBE76D
:102E80000120F9E70120F7E70120F5E70120F3E74A
:102E90000120F1E70120EFE70038024008B5334B8D
:102EA0009B6803F00C03042B5BD0082B5BD12F4BEA
:102EB0005A6802F03F025B6813F4800F2CD02B4B52
:102EC0005868C0F388104FEA401CBCEB000C6EEB56
:102ED0000E0E4FEA8E1343EA9C634FEA8C11B1EB5E
:102EE0000C0163EB0E03DB0043EA5173C90011EBE5
:102EF000000C43F10003590200234FEA4C2041EA41
:102F0000DC51FEF70DFE194B5B68C3F3014301333F
:102F10005B00B0FBF3F008BD144B5868C0F3881099
:102F20004FEA401CBCEB000C6EEB0E0E4FEA8E130A
:102F300043EA9C634FEA8C11B1EB0C0163EB0E0387
:102F4000DB0043EA5173C90011EB000C43F10003AD
:102F5000990200234FEA8C2041EA9C51FEF7E0FDE4
:102F6000D1E70348D7E70348D5E700BF0038024060
:102F700000127A000024F400002800F0A08070B550
:102F80000D460446524B1B6803F00F038B420BD2D5
:102F90004F4A136823F00F030B431360136803F0C9
:102FA0000F038B4240F08D80236813F0020F17D07F
:102FB00013F0040F04D0474A936843F4E05393603E
:102FC000236813F0080F04D0424A936843F4604327
:102FD0009360404A936823F0F003A1680B43936029
:102FE000236813F0010F31D06368012B20D0022B2E
:102FF00025D0384A126812F0020F64D035498A6829
:1030000022F0030213438B6000F0DEFD0646314BD5
:103010009B6803F00C036268B3EB820F16D000F0DC
:10302000D3FD801B41F288339842F0D9032045E05C
:10303000284A126812F4003FE0D101203EE0254A00
:10304000126812F0007FD9D1012037E0204B1B68B5
:1030500003F00F03AB420AD91D4A136823F00F0394
:103060002B431360136803F00F03AB422DD1236889
:1030700013F0040F06D0174A936823F4E053E16875
:103080000B439360236813F0080F07D0114A93682D
:1030900023F46043216943EAC1039360FFF7FEFE16
:1030A0000C4B9B68C3F303130B4AD35CD8400B4B08
:1030B00018600B4B186800F049FD002070BD01201E
:1030C00070470120FAE70120F8E70120F6E700BF8A
:1030D000003C024000380240F45600086400002022
:1030E00060000020014B1868704700BF640000209A
:1030F00008B5FFF7F7FF044B9B68C3F38223034A2D
:10310000D35CD84008BD00BF00380240EC56000830
:1031100008B5FFF7E7FF044B9B68C3F34233034A4C
:10312000D35CD84008BD00BF00380240EC56000810
:10313000F0B583B00446066816F001060DD0B54B15
:103140009A6822F400029A609A68416B0A439A6076
:10315000436B002B00F067810026256815F40025DD
:1031600011D0AC4AD2F88C3023F44013E16B0B43FE
:10317000C2F88C30E36BB3F5801F00F05681002B52
:1031800000F055810025236813F4801F0FD0A14A59
:10319000D2F88C3023F44003216C0B43C2F88C30FE
:1031A000236CB3F5800F00F0448103B90125236837
:1031B00013F0807F00D0012613F0200F40F03B81F8
:1031C000236813F0100F0CD0924BD3F88C2022F010
:1031D0008072C3F88C20D3F88C20A16B0A43C3F80B
:1031E0008C20236813F4804F08D08A4AD2F890309C
:1031F00023F44033616E0B43C2F89030236813F41C
:10320000004F08D0834AD2F8903023F44023A16EB7
:103210000B43C2F89030236813F4803F08D07D4AF6
:10322000D2F8903023F44013E16E0B43C2F8903093
:10323000236813F4003F08D0764AD2F8903023F484
:103240004003216F0B43C2F89030236813F0400F06
:1032500008D0704AD2F8903023F00303616C0B431E
:10326000C2F89030236813F0800F08D0694AD2F872
:10327000903023F00C03A16C0B43C2F8903023680C
:1032800013F4807F08D0634AD2F8903023F03003E3
:10329000E16C0B43C2F89030236813F4007F08D030
:1032A0005C4AD2F8903023F0C003216D0B43C2F882
:1032B0009030236813F4806F08D0564AD2F89030CB
:1032C00023F44073616D0B43C2F89030236813F40C
:1032D000006F08D04F4AD2F8903023F44063A16DBC
:1032E0000B43C2F89030236813F4805F08D0494A3A
:1032F000D2F8903023F44053E16D0B43C2F8903084
:10330000236813F4005F08D0424AD2F8903023F4C7
:103310004043216E0B43C2F89030236813F4800FB2
:1033200008D03C4AD2F8903023F08063A16F0B4361
:10333000C2F89030236813F4001F0DD0354AD2F83C
:10334000903023F00063E16F0B43C2F89030E36FDD
:10335000B3F1006F00F0D580236813F0080F00D0A0
:10336000012513F4802F08D02A4AD2F8903023F098
:103370004073616F0B43C2F89030236813F4000F61
:1033800009D0244AD2F8903023F08053D4F880102A
:103390000B43C2F89030236813F0806F09D01D4AA8
:1033A000D2F8903023F00053D4F884100B43C2F8C5
:1033B0009030236813F0006F09D0164AD2F88C3091
:1033C00023F00073D4F888100B43C2F88C302368C4
:1033D00013F0805F09D00F4AD2F88C3023F080635D
:1033E000D4F88C100B43C2F88C3026B9236813F044
:1033F000007F00F00681074A136823F080631360A2
:1034000000F0E2FB0646034B1B6813F0006F7AD016
:1034100002E000BF0038024000F0D6FB801B6428A9
:10342000F1D90320F0E0012697E60126A7E6012561
:10343000A9E60126B9E67F4B1A6C42F080521A6465
:103440001B6C03F080530193019B7B4A136843F488
:103450008073136000F0B8FB0746774B1B6813F4CA
:10346000807F06D100F0B0FBC01B6428F5D9032093
:10347000CAE0704B1B6F13F4407315D0226B02F43B
:1034800040729A4210D06B4B1A6F22F44072196F3F
:1034900041F480311967196F21F4803119671A6777
:1034A0001B6F13F0010F12D1236B03F44072B2F5BE
:1034B000407F1DD05F4A936823F4F81393605D4901
:1034C0000B6F226BC2F30B0213430B6778E600F01D
:1034D0007BFB0746574B1B6F13F0020FE4D100F044
:1034E00073FBC01B41F288339842F3D903208BE071
:1034F0005048826822F4F812504919400A43826009
:10350000DDE7012528E7236813F0010F13D0636B73
:103510008BB9484AD2F88430D2F88410606803F43A
:10352000403343EA801301F070610B43A16843EA22
:103530000173C2F88430236813F4002F03D0E26BC8
:10354000B2F5801F06D013F4801F1ED0236CB3F594
:10355000800F1AD1374AD2F88430D2F884106068CC
:1035600003F4403343EA8013E06843EA006301F068
:10357000E0410B43C2F88430D2F88C3023F01F03B3
:10358000616A01390B43C2F88C30236813F0807FE5
:1035900011D0284AD2F88400D2F8841066682369D2
:1035A0001B0443EA861300F07060034301F0E0411E
:1035B0000B43C2F88430236813F0007F0DD062689B
:1035C00023691B0443EA8213E26843EA0263A268A8
:1035D00043EA0273174AC2F88430164A136843F06C
:1035E0008063136000F0F0FA0646124B1B6813F07C
:1035F000006F06D100F0E8FA801B6428F5D903209B
:1036000002E0012D02D0002003B0F0BD094A13688A
:1036100023F08053136000F0D7FA0546054B1B6872
:1036200013F0005F0CD000F0CFFA401B6428F5D9EE
:103630000320E9E70038024000700040FFFCFF0F64
:10364000236813F4002F01D0E26B22B113F4801F22
:103650001DD0236CDBB9354AD2F88830D2F88810F7
:10366000606903F4403343EA8013A06943EA0063CE
:1036700001F0E0410B43C2F88830D2F88C3023F4DB
:10368000F853A16A013943EA0123C2F88C30236858
:1036900013F4001F03D0E36FB3F1006F31D0236840
:1036A00013F0080F19D0214AD2F88810D2F88830C8
:1036B000606903F4403343EA801301F070610B4307
:1036C000E16943EA0173C2F88830D2F88C3023F400
:1036D0004033E16A0B43C2F88C30144A136843F05C
:1036E0008053136000F070FA0446104B1B6813F00F
:1036F000005F19D100F068FA001B6428F5D9032097
:1037000082E70A4AD2F88800D2F888106569236AED
:103710001B0443EA851300F07060034301F0E041AD
:103720000B43C2F88830BAE700206DE7003802404A
:1037300000230F2B00F2F48070B582B066E085683C
:103740004FEA430E032404FA0EF425EA0405CC687C
:1037500004FA0EF42C438460446824EA02044A68A4
:10376000C2F300129A40224342605DE0DC08083454
:1037700050F8242003F00705AD004FF00F0E0EFAAD
:1037800005FE22EA0E0E0A69AA4042EA0E0240F83D
:1037900024205DE0092200E0002202FA0EF22A4312
:1037A0000234604D45F824205F4A94686FEA0C02A9
:1037B00024EA0C054E6816F4801F01D04CEA04057B
:1037C000594CA560E46802EA04054E6816F4001F2F
:1037D00001D04CEA0405544CE560646802EA040533
:1037E0004E6816F4003F01D04CEA04054E4C65606B
:1037F000246822404D6815F4803F01D04CEA040251
:10380000494C226001330F2B00F2888001229A403C
:103810000C6804EA020C32EA0404F3D14C6804F0A8
:103820000304013C012C8AD94A6802F00302032AEE
:1038300009D0C4685D000322AA4024EA02048A6811
:10384000AA402243C2604A6802F00302022A8DD0D5
:1038500004684FEA430E032202FA0EF224EA02043D
:103860004A6802F0030202FA0EF2224302604A683A
:1038700012F4403FC6D02D4A546C44F48044546442
:10388000526C02F480420192019A9C08A51C254AC0
:1038900052F8255003F0030E4FEA8E0E0F2202FA63
:1038A0000EF225EA0205224A90423FF475AF02F576
:1038B0008062904222D002F58062904220D002F5D0
:1038C000806290421ED002F5806290421CD002F5C8
:1038D000806290421AD002F58062904218D002F5C0
:1038E0008062904216D002F58062904214D002F5B8
:1038F000806290423FF44EAF0A224EE701224CE72D
:1039000002224AE7032248E7042246E7052244E769
:10391000062242E7072240E708223EE702B070BDD8
:10392000704700BF00380140003C014000380240B1
:10393000000002400AB1816170470904816170474B
:10394000024A136843F480731360704700700040AC
:1039500010B582B01B4B1A6C42F080521A641B6C7B
:1039600003F080530193019B174A136843F480339B
:10397000136000F029F90446134B5B6813F4803F91
:1039800008D100F021F9001BB0F57A7FF4D90320AB
:1039900002B010BD0C4A136843F40033136000F00A
:1039A00013F90446084B5B6813F4003F07D100F09D
:1039B0000BF9001BB0F57A7FF4D90320E8E700206B
:1039C000E6E700BF0038024000700040002804DB3A
:1039D0000901C9B2044B1954704700F00F000901E6
:1039E000C9B2024B1954704700E400E014ED00E046
:1039F00000B500F00700C0F1070CBCF1040F28BFB0
:103A00004FF0040C031D062B0FD9C31E4FF0FF3ED1
:103A10000EFA0CF021EA000199400EFA03FE22EAA8
:103A20000E0241EA02005DF804FB0023EEE700000D
:103A30000649CB6823F4E0631B041B0C000200F46E
:103A4000E0600343024A1A43CA60704700ED00E099
:103A50000000FA0510B50446054BD868C0F30220F3
:103A6000FFF7C6FF01462046FFF7B0FF10BD00BFBD
:103A700000ED00E0002807DB00F01F0240090123F1
:103A80009340024A42F82030704700BF00E100E056
:103A90000138B0F1807F0BD24FF0E0235861054A26
:103AA000F02182F823100020986107221A617047E4
:103AB0000120704700ED00E0BFF35F8F044B5A6AAE
:103AC00022F480325A620022C3F89420704700BF6B
:103AD00000ED00E040F00100054BC3F894005A6A85
:103AE00042F480325A62BFF34F8FBFF36F8F70473B
:103AF00000ED00E04378144AC2F89830D2F8A030C4
:103B000023F00103C2F8A0304368C2F89C30017B67
:103B1000C37A1B0643EA0173817A43EAC143417BBE
:103B200043EA8143817B43EA4143C17B43EA01434A
:103B3000417A43EA0123017A43EA410301780B43C6
:103B4000C2F8A030704700BF00ED00E010B5044699
:103B50000E4B1A784FF47A73B3FBF2F30C4A1068E9
:103B6000B0FBF3F0FFF794FF68B90F2C01D90120E7
:103B70000AE0002221464FF0FF30FFF76BFF054BB4
:103B80001C60002000E0012010BD00BF5C00002090
:103B9000640000206000002008B50320FFF748FF04
:103BA0000020FFF7D3FFFEF7AFFC002008BD0000A8
:103BB000034A1168034B1B780B441360704700BF26
:103BC0008C0900205C000020014B1868704700BF82
:103BD0008C09002038B50446FFF7F6FF0546B4F11E
:103BE000FF3F02D0044B1B781C44FFF7EDFF401B46
:103BF000A042FAD338BD00BF5C0000205079137991
:103C000043EA002307480B50D07893781B0443EA1B
:103C10000063507843EA002312781343024A8B5022
:103C2000704700BF408002404480024030B4002210
:103C300008E0C468DC6051F80C3043F4400341F8FC
:103C40000C300132032A1FD8C16802EB82034FEA0D
:103C5000C30C01EBC303002441F80C405C609C6082
:103C6000DC60941D40F8243051F80C4044F480147A
:103C700041F80C40022ADCD8541C04EB8404C568CB
:103C800005EBC404DC60D6E700238362C2680368E6
:103C900003F580531A6130BC704710B4002202E073
:103CA0000169D9600132032A28D8046902EB820332
:103CB0004FEAC30C04EBC303002144F80C10596015
:103CC0009960D960196259624FF0004144F80C10B4
:103CD000416941F480415960596821F000415960BF
:103CE00002F1120140F82130022AD9D80469511C8E
:103CF00001EB810104EBC104DC60D3E70023C36561
:103D000003668366C36683650269036803F58053AF
:103D1000DA605DF8044B704770B505460C460268E2
:103D200013683C491940A37B5B06207C002861D1C5
:103D30004FF400000343607C00285DD14FF4800005
:103D40000343A0680343E07F43EA00436069034301
:103D5000A07F002852D14FF400500343207F43EA54
:103D60000033A0690343207943EA802394F82000BC
:103D7000002845D14FF400700343E07B43EAC013B1
:103D8000606A034394F8280043EA00130B4313606E
:103D90002B681E680120FFF71DFF2B681E60296835
:103DA0008A6922F0BE021204120CA36C1B0494F860
:103DB0004C0038BB80200343206D034394F855002A
:103DC000012821D00020034394F8560001281DD07B
:103DD0000020034394F85400012819D00020034325
:103DE00013438B612B689C690120FFF7F3FE2B685E
:103DF0009C6170BD00209DE70020A1E70020ACE79A
:103E00000020B9E70020D6E70820DCE70420E0E73F
:103E10000220E4E70F8120FD70B505460C460268DC
:103E200002F580539B692B491940237B002B4DD110
:103E30004FF08063607B43EA4063607F002847D196
:103E40004FF480100343A07B43EA4053606903436F
:103E5000207F43EAC013A07F43EA8013206A034314
:103E600094F8240043EA80030B4302F580529361E7
:103E70002B6803F580539E690120FFF7ABFE2B688A
:103E800003F580539E612279A36843EA4263A269E5
:103E900013432269134394F8252043EAC213A26A0C
:103EA00043EA8203226813432A6843F4000302F5BD
:103EB000805213602B6803F580531C680120FFF7C4
:103EC00089FE2B6803F580531C6070BD0023B1E7A9
:103ED0000020B7E7233FDEF870B5A4B00646012501
:103EE0008DF83C508DF83D5000240D948DF84B40DA
:103EF0008DF84A508DF848408DF83A508DF8305082
:103F00008DF84C408DF83B4014948DF854401D942E
:103F10008DF878401F948DF882408DF880404FF4E2
:103F2000804310934FF4006311938DF881400BA9E7
:103F3000FFF7F2FE8DF80C508DF80D508DF81D50E6
:103F40008DF80E5005948DF81C408DF81E40089495
:103F50008DF824508DF804504FF4803302934FF4C1
:103F6000800306934FF4005304938DF825500A9470
:103F7000009469463046FFF74FFF24B070BD000043
:103F8000002868D030B583B00446D0F88430002BC8
:103F900032D0324B5A6C42F480425A645B6C03F468
:103FA00080430193019B2E4B5A6822F400025A6011
:103FB0005A68A1680A435A605B68236803F5805316
:103FC0001A6842F001021A60FFF7FEFD05462368F9
:103FD00003F580531B6813F0010F13D0FFF7F4FDB6
:103FE000401BB0F5FA7FF2D90423C4F88830E023EF
:103FF000C4F8843001202CE02023C0F88430FEF780
:1040000013F9C6E72046FFF767FF2046FFF70EFECD
:104010002046FFF742FE626800212046FFF7EEFDD2
:104020002268D36B43F40273D3632268D2F80C1175
:104030000C4B0B43C2F80C312268D2F8103143F418
:104040000313C2F810310020C4F888001023C4F80C
:10405000843003B030BD0120704700BF00380240FB
:104060000038014060000200026852E8003F23F47B
:10407000907342E800310029F6D1026802F108038A
:1040800053E8003F23F00103083242E800310029E1
:10409000F3D1036E012B06D02023C0F8803000231B
:1040A000036683667047026852E8003F23F01003FE
:1040B00042E800310029F6D1EEE7000010B50446D1
:1040C00083680269134342691343C2691343016859
:1040D0000868914A02401A430A602268536823F430
:1040E0004053E1680B435360A269236A1A43216875
:1040F0008B6823F4306313438B602368874A9342B1
:1041000018D0874A93423AD0864A93424FD0864A83
:1041100093425ED0854A93426DD0854A93427FD0C8
:10412000844A934200F09180834A934200F0A28037
:1041300010230BE0814BD3F8903003F00303032BE3
:104140001BD8DFE803F00216AB180123E069B0F5D5
:10415000004F00F0D780082B00F23881DFE813F021
:1041600014012701120136012A01360136013601F8
:104170002D010423EAE70823E8E71023E6E76F4B65
:10418000D3F8903003F00C030C2B0ED8DFE803F0CB
:10419000070D0D0D090D0D0D880D0D0D0B000023E4
:1041A000D4E70423D2E70823D0E71023CEE7634BFC
:1041B000D3F8903003F03003202B73D005D8002BB8
:1041C00072D0102B72D10423C0E7302B70D108239A
:1041D000BCE75A4BD3F8903003F0C003802B69D072
:1041E00005D8002B68D0402B68D10423AEE7C02B44
:1041F00066D10823AAE7514BD3F8903003F44073FB
:10420000B3F5007F5ED006D8002B5DD0B3F5807F7C
:104210005CD104239AE7B3F5407F59D1082395E791
:10422000464BD3F8903003F44063B3F5006F51D0A0
:1042300006D8002B50D0B3F5806F4FD1042385E70B
:10424000B3F5406F4CD1082380E73C4BD3F8903056
:1042500003F44053B3F5005F44D006D8002B43D09D
:10426000B3F5805F42D1042370E7B3F5405F3FD1DF
:1042700008236BE7314BD3F8903003F44043B3F598
:10428000004F37D005D8BBB3B3F5804F36D10423E8
:104290005CE7B3F5404F33D1082357E7022355E7D6
:1042A000022353E7022351E700234FE710234DE792
:1042B00010234BE7022349E7002347E7102345E794
:1042C000102343E7022341E700233FE710233DE7A4
:1042D00010233BE7022339E7012337E7102335E7B3
:1042E000102333E7022331E700232FE710232DE7C4
:1042F00010232BE7022329E7002327E7102325E7D4
:10430000102323E7082B5BD8DFE803F01A343A5A6E
:10431000375A5A5A1E0000BFF369FFEF00100140E0
:104320000044004000480040004C00400050004065
:104330000014014000780040007C0040003802403A
:10434000FEF7D6FE00283DD06268530803EB400319
:10435000B3FBF2F3A3F110014FF6EF72914233D8A1
:104360009AB222F00F02C3F3420313432268D360D0
:10437000002030E0FEF7CCFEE4E7FEF78FFDE1E73A
:104380001748E1E7164802E0FEF7B2FE00B36368A3
:1043900000EB5300B0FBF3F0A0F110024FF6EF7307
:1043A0009A4217D8236880B2D860002013E0FEF745
:1043B000AFFEEBE7FEF772FDE8E74FF40040E6E7FB
:1043C000012008E0002006E0012004E0012002E0D6
:1043D000002000E001200023A366E36610BD00BFBB
:1043E0000024F400436A13F0080F06D002685368F3
:1043F00023F40043416B0B435360436A13F0010FF6
:1044000006D00268536823F40033816A0B4353607B
:10441000436A13F0020F06D00268536823F4803316
:10442000C16A0B435360436A13F0040F06D002685D
:10443000536823F48023016B0B435360436A13F0EA
:10444000100F06D00268936823F48053816B0B43EE
:104450009360436A13F0200F06D00268936823F438
:104460000053C16B0B439360436A13F0400F0AD0B3
:104470000268536823F48013016C0B435360036C90
:10448000B3F5801F0BD0436A13F0800F06D002688B
:10449000536823F40023816C0B4353607047026818
:1044A000536823F4C003416C0B435360EBE72DE9E1
:1044B000F84305460E4617469946DDF820802B68DE
:1044C000DC6936EA04040CBF01240024BC423AD162
:1044D000B8F1FF3FF3D0FFF777FBA0EB09004045B1
:1044E00034D8B8F1000F33D02B681A6812F0040FDB
:1044F000E5D0B6F1400218BF0122802EDFD0002A9D
:10450000DDD0DA6912F0080F11D1DA6912F4006F08
:10451000D5D04FF400621A622846FFF7A5FD20238C
:10452000C5F88430002385F8783003200CE0082497
:104530001C622846FFF798FDC5F88440002385F8E3
:104540007830012000E00020BDE8F8830320FBE77D
:104550000320F9E72DE9F04182B01E46C36F202BFE
:1045600057D104460D469046002A18BF002901D1B4
:1045700001204FE00023C0F884302123C367FFF7F8
:1045800023FB0746A4F85080A4F85280A368B3F533
:10459000805F02D04FF0000815E023693BB34FF075
:1045A000000810E02023E367032033E038F8023BE3
:1045B0002268C3F308039362B4F8522092B2013A1E
:1045C00092B2A4F85220B4F852309BB293B1009644
:1045D0003B46002280212046FFF769FF0028E1D1F9
:1045E000002DE3D015F8012B23689A62E4E7A84672
:1045F0000025E8E700963B46002240212046FFF7D1
:1046000056FF10B92023E36704E02023E36703206B
:1046100000E0022002B0BDE8F08130B583B004466E
:104620000023C0F88430FFF7CFFA054622681268ED
:1046300012F0080F0FD123681B6813F0040F26D166
:104640002023E367C4F8803000202066606684F889
:10465000780003B030BD6FF07E4300930346002224
:104660004FF400112046FFF722FF0028E3D0226814
:1046700052E8003F23F0800342E800310029F6D1E0
:104680002023E367002384F878300320E1E76FF00C
:104690007E4300932B4600224FF480012046FFF713
:1046A00006FF0028CCD0226852E8003F23F4907324
:1046B00042E800310029F6D1226802F1080353E8EC
:1046C000003F23F00103083242E800310029F3D112
:1046D0002023C4F88030002384F878300320B8E722
:1046E00068B310B50446C36F03B32423E36722689D
:1046F000136823F001031360636AE3B92046FFF7F0
:10470000DDFC012811D02268536823F490435360E4
:104710002268936823F02A0393602268136843F0A9
:10472000010313602046FFF778FF10BD80F8783052
:10473000FDF71CFED9E72046FFF754FEDEE7012017
:10474000704730B583B0002800F0828004460568C9
:1047500090F89534C3B1032384F89534B5F1A04F94
:1047600017D0206800F0F8F8237C8DF80030231D66
:104770000ECB206800F0AEF870B1022384F89534B7
:104780000125284603B030BD80F89434FDF750FE73
:10479000E1E70023A371E4E70021206800F00AFAB2
:1047A000024608B9034617E0022384F89534012530
:1047B000E7E703EBC30104EB8101012048750B75AA
:1047C000CB8500200876C861086203EBC30104EBC7
:1047D000810148620133DBB220799842E9D816E0C2
:1047E00002EBC20304EB8303002183F8551283F824
:1047F000542283F85812C3F85C12C3F8601202EB1B
:10480000C20304EB8303C3F864120132D2B29042B4
:10481000E6D8237C8DF80030231D0ECB206800F0F5
:10482000F1F8054658B900236374012384F89534E0
:10483000237B012B08D0206800F0AAF9A1E702230E
:1048400084F8953401259CE7204600F003F8F2E750
:10485000012596E7034602680121C0F8D81400201C
:1048600083F8CC04936943F000639361516D024B6C
:104870000B435365704700BF0300001082B0002354
:104880000193019B01330193019BB3F1706F1CD81D
:104890000369002BF5DA0A23019302E0019B013B37
:1048A0000193019B002BF9D1036943F001030361DC
:1048B000019B01330193019BB3F1706F08D8036929
:1048C00013F0010FF4D1002000E0032002B0704784
:1048D0000320FBE784B010B5044603A880E80E006F
:1048E0009DF81130012B1FD1A36B23F48033A363F8
:1048F000E268184B1340E360E36823F44013E3607D
:104900009DF81830012B0AD02046FFF7B7FF9DF81D
:104910000E30012B14D0BDE8104004B07047E3689E
:1049200043F48013E360EFE7E36843F04003E360A0
:104930002046FFF7A3FFA36B43F48033A363E6E7AE
:10494000A36843F00603A360A36843F02003A360B9
:10495000E1E700BFBFFFBDFF836823F00103836071
:104960000020704782B000230193019B0133019323
:10497000019BB3F1706F15D80369002BF5DA0023A2
:104980000193890141F020010161019B01330193F1
:10499000019BB3F1706F08D8036913F0200FF4D1B5
:1049A000002000E0032002B070470320FBE782B044
:1049B00000230193019B01330193019BB3F1706FBD
:1049C00013D80369002BF5DA002301931023036148
:1049D000019B01330193019BB3F1706F08D8036908
:1049E00013F0100FF4D1002000E0032002B0704754
:1049F0000320FBE7D0F800381943C0F80018002066
:104A00007047000084B0F8B5044607A880E80E009F
:104A1000002306E003F1400204EB82020021516012
:104A200001330E2BF6D99DF8266006BBD4F8043866
:104A300043F00203C4F80438A36B23F40013A36308
:104A4000236843F040032360236843F0800323601E
:104A50000023C4F8003E9DF82130012B11D19DF8B0
:104A60001F304BB900212046FFF7C4FF0DE0A36BB8
:104A700043F40013A363EBE701212046FFF7BAFFDD
:104A800003E003212046FFF7B5FF10212046FFF782
:104A900069FF054600B101252046FFF788FF00B1F8
:104AA000012504F5006C0023CCF81030CCF814304C
:104AB000CCF81C300AE0CBB94FF00060C2F8000916
:104AC00000220A614FF67F328A6001339DF81C1084
:104AD000994210D904EB431202F51061D2F8000993
:104AE0000028E8DB0020C2F80009E9E74FF0904019
:104AF000C2F80009E4E700230AE0BBB14FF0904799
:104B0000C2F8007B002202614FF67F3282600133DF
:104B1000994210D904EB431202F53060D2F8007BC1
:104B2000002FEADB0027C2F8007BEBE74FF00067BD
:104B3000C2F8007BE6E7DCF8103023F48073CCF891
:104B400010300023A3616FF0804363619DF81E3035
:104B50001BB9A36943F01003A361A2690A4B134375
:104B6000A3619DF822301BB1A36943F00803A36140
:104B7000012E04D02846BDE8F84004B07047A26971
:104B8000024B1343A361F5E700383C80040000406A
:104B9000D0F8003E23F00303C0F8003ED0F80438FC
:104BA00043F00203C0F8043800207047406900F069
:104BB0000100704738B50546C36823F0C043C360A1
:104BC000012913D019BBC36843F08043C36000249C
:104BD0000A20FEF7FFFF0A342846FFF7E7FF08B177
:104BE000C72CF5D9C82C14D0002038BDC36843F0B9
:104BF0000053C36000240A20FEF7ECFF0A34284665
:104C0000FFF7D4FF0128EDD0C72CF4D9EAE7012043
:104C1000EBE70120E9E70000034AD2F8883043F4CB
:104C20007003C2F88830704700ED00E010B503460D
:104C30000C4A0D490D48006840B10C480068034417
:104C4000521A934206D8094A136010BD0748084C0F
:104C50000460F2E7FBF792FB0C2303604FF0FF3098
:104C6000F3E700BF000008200004000090090020C6
:104C7000E009002070B50C461646002506E0AFF3AB
:104C80000080214601F8010B01350C46B542F6DBE8
:104C9000304670BD70B50C461646002504E014F889
:104CA000010BFDF7DFF80135B542F8DB304670BD8A
:104CB0004FF0FF3070474FF400534B6000207047B7
:104CC00001207047002070470268094B9A4200D0CB
:104CD000704782B003F59C335A6C42F001025A646B
:104CE0005B6C03F001030193019B02B0704700BFAE
:104CF0000000014000B587B00023019302930393A5
:104D00000493059302680E4B9A4202D007B05DF8F7
:104D100004FB03F59C331A6B42F010021A631B6B01
:104D200003F010030093009B4FF4007301930223E0
:104D300002930123059301A90248FEF7F9FCE5E778
:104D4000000001400010024010B59AB000241694F3
:104D50001794189419941394149415940C940D9416
:104D60000E940F941094119412942C22214601A8B1
:104D7000FBF7B2FA3048314B0360446084604FF671
:104D8000FF73C360046144618023836100F0FCF918
:104D900000283FD14FF48053169316A9264800F0FF
:104DA00035FB002839D1244800F01EFA002837D1FD
:104DB000002313931493159313A91F4800F0A6FB27
:104DC000002830D160230C9300220D920E920F9296
:104DD0001092119212920CA9174800F06DFA28BB9C
:104DE0000023019302930393049305934FF400521D
:104DF0000692079308934FF0007209920A930B935F
:104E000001A90D4800F0D2FB98B90B48FFF772FFDB
:104E10001AB010BDFDF736F8BCE7FDF733F8C2E76E
:104E2000FDF730F8C4E7FDF72DF8CBE7FDF72AF8DA
:104E3000D6E7FDF727F8E8E79409002000000140D5
:104E400070B4046A036A23F001030362426885694F
:104E5000124B2B400D681D4324F002048B68234342
:104E60000F4C104EB04218BFA0420CBF01240024CA
:104E700005D123F00803CE681E4326F004032CB1AD
:104E800022F440724C6914438A692243426085616E
:104E90004A684263036270BC704700BF8CFFFEFF2C
:104EA000000001400004014070B4036A026A22F469
:104EB000807202624268C569144C2C400E68264319
:104EC00023F400738C6843EA0423114C114DA8426B
:104ED00018BFA0420CBF0124002406D123F40063B4
:104EE000CD6843EA052323F480633CB122F44052A9
:104EF0004C6942EA04128C6942EA04124260C661BB
:104F00004A68C263036270BC704700BF8CFFFEFF3B
:104F1000000001400004014070B4036A026A22F4F8
:104F2000805202624468C5690D4A2A400D6842EA0F
:104F3000052223F400538D6843EA0533094E0A4DD8
:104F4000A84218BFB04204D124F480444D6944EA19
:104F500085144460C2614A680264036270BC704791
:104F6000FF8CFFFE000001400004014070B4036AA2
:104F7000026A22F4803202624468426D0D4D15408F
:104F80000A682A4323F400338D6843EA05430A4E36
:104F90000A4DA84218BFB04204D124F480344D69B0
:104FA00044EA0524446042654A688265036270BC35
:104FB000704700BF8FFFFEFF00000140000401406A
:104FC00070B4036A026A22F4801202624468456D7A
:104FD0000D4A2A400D6842EA052223F400138D6829
:104FE00043EA0553094E0A4DA84218BFB04204D106
:104FF00024F480244D6944EA8524446042654A686B
:10500000C265036270BC7047FF8FFFFE0000014065
:105010000004014010B4036A046A24F0010404622D
:10502000846924F0F00C4CEA021223F00A030B43CB
:10503000826103625DF8044B704710B4036A046A2E
:1050400024F010040462846924F4704C4CEA0232A7
:1050500023F0A00343EA0113826103625DF8044B6D
:105060007047836823F070030B4343F007038360AA
:105070007047704770B403683C4A904214BF0022E6
:105080000122B0F1804F14BF144642F00104ACB9C4
:10509000374DA84214BF00250125364EB0420DD031
:1050A00065B905F1804505F58235A84214BF002594
:1050B000012506F50066B04200D01DB123F0700353
:1050C0004D682B43002C33D1294CA04214BF00243F
:1050D0000124284DA8422BD054BB04F1804404F590
:1050E0008234A04214BF0024012405F50065A842C3
:1050F0001ED0ECB9204CA04214BF0024012405F5B9
:105100009A35A84214D09CB91C4CA04214BF00246C
:10511000012405F50065A8420AD04CB9184CA042FC
:1051200014BF00240124A5F59635A84200D01CB177
:1051300023F44073CC68234323F080034C6923435A
:105140008C68C4620C6884620E4CA04208BF42F0B6
:1051500001020AB10A690263026842F004020260B5
:1051600001224261036070BC704700BF0000014033
:1051700000080040000400400044014000180040C6
:10518000002000400004014060B310B5044690F8D0
:105190003D3013B3022384F83D30214651F8040B0F
:1051A000FFF768FF012384F8483084F83E3084F824
:1051B0003F3084F8403084F8413084F8423084F83D
:1051C000433084F8443084F8453084F8463084F81D
:1051D000473084F83D30002010BD80F83C30FFF7A8
:1051E00073FDD7E70120704760B310B5044690F80F
:1051F0003D3013B3022384F83D30214651F8040BAF
:10520000FFF738FF012384F8483084F83E3084F8F3
:105210003F3084F8403084F8413084F8423084F8DC
:10522000433084F8443084F8453084F8463084F8BC
:10523000473084F83D30002010BD80F83C30FFF747
:1052400018FFD7E70120704770B4036A026A22F0A2
:105250001002026242688569144C2C400D6844EAD1
:10526000052523F020038C6843EA0413104C114EEB
:10527000B04218BFA0420CBF0124002406D123F085
:105280008003CE6843EA061323F040033CB122F4C6
:1052900040624C6942EA84028C6942EA84024260BC
:1052A00085614A688263036270BC7047FF8CFFFEB1
:1052B000000001400004014038B590F83C30012B5B
:1052C00000F0958004460D46012380F83C30142AF6
:1052D00000F28880DFE802F00B8686861F868686CD
:1052E00034868686488686865D8686867100006856
:1052F000FFF7A6FD2268936943F0080393612268D3
:10530000936923F0040393612268936929690B432D
:105310009361002067E00068FFF796FF22689369B9
:1053200043F4006393612268936923F4806393617B
:1053300022689369296943EA01239361002052E0BE
:105340000068FFF7B1FD2268D36943F00803D36119
:105350002268D36923F00403D3612268D3692969E1
:105360000B43D36100203EE00068FFF7D5FD2268C3
:10537000D36943F40063D3612268D36923F4806363
:10538000D3612268D369296943EA0123D3610020EC
:1053900029E00068FFF7EAFD2268536D43F0080337
:1053A00053652268536D23F0040353652268536DDF
:1053B00029690B435365002015E00068FFF700FEE4
:1053C0002268536D43F4006353652268536D23F4E0
:1053D000806353652268536D296943EA012353654D
:1053E000002000E00120002384F83C3038BD02207A
:1053F000FCE710B4846824F47F4C42EA03220A4399
:1054000042EA0C0282605DF8044B704790F83C3031
:10541000012B76D010B50446012380F83C300223DE
:1054200080F83D3002689068374B034093600B680A
:10543000602B4CD023D8402B54D011D8202B03D034
:105440000AD80BB1102B05D119462068FFF709FEC9
:10545000002028E0012026E0302BF5D0012022E0BA
:10546000502B0AD1CA6849682068FFF7D3FD502144
:105470002068FFF7F6FD002015E0012013E0B3F5EA
:10548000805F3AD0B3F5005F14D0702B37D1CB6872
:105490004A6889682068FFF7ACFF2268936843F088
:1054A000770393600020012384F83D30002384F8C3
:1054B0003C3010BDCB684A6889682068FFF799FFC7
:1054C0002268936843F4804393600020EBE7CA6846
:1054D00049682068FFF7B1FD60212068FFF7C1FD32
:1054E0000020E0E7CA6849682068FFF793FD402183
:1054F0002068FFF7B6FD0020D5E70020D3E70120A4
:10550000D1E70220704700BF8800FEFF90F83C20E2
:10551000012A45D070B40346012280F83C200222C3
:1055200080F83D200268506894681E4E1E4DAA42C5
:1055300018BFB24203D120F470004D68284320F018
:1055400070000D68284350601A681648B2F1804F09
:1055500018BF824217D0A0F57C40824213D000F5DC
:10556000806082420FD000F5806082420BD000F54F
:105570007840824207D000F57050824203D0A0F5F7
:105580009430824204D124F08004896821439160E0
:10559000012283F83D20002083F83C0070BC704756
:1055A00002207047000001400004014090F83C30A8
:1055B000012B3CD030B40246012380F83C30CB684C
:1055C00023F440738868034323F4806348680343EB
:1055D00023F400630868034323F4805308690343FA
:1055E00023F400534869034323F48043886A034348
:1055F00023F47023886943EA004310680D4D0E4C74
:10560000A04218BFA8420CD123F470034C6A43EAAD
:10561000045323F08073CC69234323F00073096A99
:105620000B434364002082F83C0030BC70470220EA
:10563000704700BF0000014000040140DFF834D093
:10564000FFF7EAFA0C480D490D4A002302E0D4584E
:10565000C4500433C4188C42F9D30A4A0A4C0023BC
:1056600001E013600432A242FBD3FAF70DFEFCF70F
:1056700065FC704700000820000000206800002042
:1056800014570008A8010020E0090020FEE70000F0
:10569000F8B500BFF8BC08BC9E467047F8B500BF1F
:0856A000F8BC08BC9E467047EF
:1056A800256420000A0D0000232D302B2000000067
:1056B800686C4C00656667454647000030313233F8
:1056C80034353637383941424344454600000000F6
:1056D8003031323334353637383961626364656660
:1056E80000000000000000000102030400000000A8
:0C56F8000000000001020304060708097E
:085704009CBAFF7F01000000C8
:04570C006902000826
:04571000410200084A
:105714000400002000000000C40100202C0200202E
:1057240094020020000000000000000000000000BF
:105734000000000000000000000000000000000065
:105744000000000000000000000000000000000055
:105754000000000000000000000000000000000045
:105764000000000003000000C4010020010000004C
:08577400100000000024F40005
:10577C00000000000000000000000000000000001D
:10578C00000000000000000000000000000000000D
:10579C0000000000000000000000000000000000FD
:1057AC0000000000000000000000000000000000ED
:1057BC0000000000000000000000000000000000DD
:1057CC0000000000000000000000000000000000CD
:1057DC0000000000000000000000000000000000BD
:1057EC0000000000000000000000000000000000AD
:1057FC00000000000000000000000000000000009D
:10580C00000000000000000000000000000000008C
:10581C00000000000000000000000000000000007C
:10582C00000000000000000000000000000000006C
:10583C00000000000000000000000000000000005C
:10584C00000000000000000000000000000000004C
:10585C00000000000000000000000000000000003C
:10586C00000000000000000000000000000000002C
:10587C00000000000000000000000000000000001C
:10588C00000000000000000000000000000000000C
:10589C0000000000000000000000000000000000FC
:1058AC0000000000000000000000000000000000EC
:040000050800563D5C
:00000001FF
